{
  "_format": "hh-sol-artifact-1",
  "contractName": "CommunityCoinFactory",
  "sourceName": "contracts/CommunityCoinFactory.sol",
  "abi": [
    {
      "inputs": [
        {
          "internalType": "address",
          "name": "communityCoinImpl",
          "type": "address"
        },
        {
          "internalType": "address",
          "name": "communityStakingPoolFactoryImpl",
          "type": "address"
        },
        {
          "internalType": "address",
          "name": "stakingPoolImpl",
          "type": "address"
        },
        {
          "internalType": "address",
          "name": "stakingPoolImplErc20",
          "type": "address"
        },
        {
          "internalType": "address",
          "name": "rolesManagementImpl",
          "type": "address"
        },
        {
          "internalType": "address",
          "name": "reserveToken_",
          "type": "address"
        },
        {
          "internalType": "address",
          "name": "tradedToken_",
          "type": "address"
        }
      ],
      "stateMutability": "nonpayable",
      "type": "constructor"
    },
    {
      "anonymous": false,
      "inputs": [
        {
          "indexed": false,
          "internalType": "address",
          "name": "instance",
          "type": "address"
        },
        {
          "indexed": false,
          "internalType": "uint256",
          "name": "instancesCount",
          "type": "uint256"
        }
      ],
      "name": "InstanceCreated",
      "type": "event"
    },
    {
      "anonymous": false,
      "inputs": [
        {
          "indexed": true,
          "internalType": "address",
          "name": "previousOwner",
          "type": "address"
        },
        {
          "indexed": true,
          "internalType": "address",
          "name": "newOwner",
          "type": "address"
        }
      ],
      "name": "OwnershipTransferred",
      "type": "event"
    },
    {
      "inputs": [],
      "name": "communityCoinImplementation",
      "outputs": [
        {
          "internalType": "address",
          "name": "",
          "type": "address"
        }
      ],
      "stateMutability": "view",
      "type": "function"
    },
    {
      "inputs": [],
      "name": "communityStakingPoolFactoryImplementation",
      "outputs": [
        {
          "internalType": "address",
          "name": "",
          "type": "address"
        }
      ],
      "stateMutability": "view",
      "type": "function"
    },
    {
      "inputs": [
        {
          "internalType": "uint256",
          "name": "",
          "type": "uint256"
        }
      ],
      "name": "instances",
      "outputs": [
        {
          "internalType": "address",
          "name": "",
          "type": "address"
        }
      ],
      "stateMutability": "view",
      "type": "function"
    },
    {
      "inputs": [],
      "name": "instancesCount",
      "outputs": [
        {
          "internalType": "uint256",
          "name": "amount",
          "type": "uint256"
        }
      ],
      "stateMutability": "view",
      "type": "function"
    },
    {
      "inputs": [],
      "name": "owner",
      "outputs": [
        {
          "internalType": "address",
          "name": "",
          "type": "address"
        }
      ],
      "stateMutability": "view",
      "type": "function"
    },
    {
      "inputs": [
        {
          "internalType": "address",
          "name": "hook",
          "type": "address"
        },
        {
          "internalType": "uint256",
          "name": "discountSensitivity",
          "type": "uint256"
        },
        {
          "components": [
            {
              "internalType": "address",
              "name": "addr",
              "type": "address"
            },
            {
              "internalType": "string",
              "name": "adminRole",
              "type": "string"
            },
            {
              "internalType": "string",
              "name": "redeemRole",
              "type": "string"
            },
            {
              "internalType": "string",
              "name": "circulationRole",
              "type": "string"
            }
          ],
          "internalType": "struct ICommunityRolesManagement.CommunitySettings",
          "name": "communitySettings",
          "type": "tuple"
        }
      ],
      "name": "produce",
      "outputs": [
        {
          "internalType": "address",
          "name": "instance",
          "type": "address"
        }
      ],
      "stateMutability": "nonpayable",
      "type": "function"
    },
    {
      "inputs": [],
      "name": "renounceOwnership",
      "outputs": [],
      "stateMutability": "nonpayable",
      "type": "function"
    },
    {
      "inputs": [],
      "name": "reserveToken",
      "outputs": [
        {
          "internalType": "address",
          "name": "",
          "type": "address"
        }
      ],
      "stateMutability": "view",
      "type": "function"
    },
    {
      "inputs": [],
      "name": "rolesManagementImplementation",
      "outputs": [
        {
          "internalType": "address",
          "name": "",
          "type": "address"
        }
      ],
      "stateMutability": "view",
      "type": "function"
    },
    {
      "inputs": [],
      "name": "stakingPoolErc20Implementation",
      "outputs": [
        {
          "internalType": "address",
          "name": "",
          "type": "address"
        }
      ],
      "stateMutability": "view",
      "type": "function"
    },
    {
      "inputs": [],
      "name": "stakingPoolImplementation",
      "outputs": [
        {
          "internalType": "address",
          "name": "",
          "type": "address"
        }
      ],
      "stateMutability": "view",
      "type": "function"
    },
    {
      "inputs": [],
      "name": "tradedToken",
      "outputs": [
        {
          "internalType": "address",
          "name": "",
          "type": "address"
        }
      ],
      "stateMutability": "view",
      "type": "function"
    },
    {
      "inputs": [
        {
          "internalType": "address",
          "name": "newOwner",
          "type": "address"
        }
      ],
      "name": "transferOwnership",
      "outputs": [],
      "stateMutability": "nonpayable",
      "type": "function"
    }
  ],
  "bytecode": "0x61016060405234801561001157600080fd5b5060405162000cf838038062000cf8833981016040819052610032916100dd565b61003b33610071565b6001600160a01b0396871660805294861660a05292851660c05290841660e0528316610100528216610120521661014052610163565b600080546001600160a01b038381166001600160a01b0319831681178455604051919092169283917f8be0079c531659141344cd1fd0a4f28419497f9722a3daafe3b4186f6b6457e09190a35050565b80516001600160a01b03811681146100d857600080fd5b919050565b600080600080600080600060e0888a0312156100f857600080fd5b610101886100c1565b965061010f602089016100c1565b955061011d604089016100c1565b945061012b606089016100c1565b9350610139608089016100c1565b925061014760a089016100c1565b915061015560c089016100c1565b905092959891949750929550565b60805160a05160c05160e051610100516101205161014051610b0a620001ee600039600081816101b4015261051301526000818161021501526104eb0152600081816101db01526103d701526000818161016601526104a401526000818160e2015261047c01526000818161018d01526102ac01526000818161012401526102760152610b0a6000f3fe608060405234801561001057600080fd5b50600436106100af5760003560e01c8063141dd768146100b45780632aa8195e146100dd578063552f75a014610104578063715018a61461011557806387d26e7a1461011f5780638da5cb5b14610146578063a2f7b3a51461014e578063a519f0c914610161578063d8643a5214610188578063db0b27fd146101af578063e29bb531146101d6578063f2fde38b146101fd578063f4325d6714610210575b600080fd5b6100c76100c23660046108cb565b610237565b6040516100d491906109ad565b60405180910390f35b6100c77f000000000000000000000000000000000000000000000000000000000000000081565b6001546040519081526020016100d4565b61011d6105e7565b005b6100c77f000000000000000000000000000000000000000000000000000000000000000081565b6100c7610622565b6100c761015c3660046109c1565b610631565b6100c77f000000000000000000000000000000000000000000000000000000000000000081565b6100c77f000000000000000000000000000000000000000000000000000000000000000081565b6100c77f000000000000000000000000000000000000000000000000000000000000000081565b6100c77f000000000000000000000000000000000000000000000000000000000000000081565b61011d61020b3660046109da565b61065b565b6100c77f000000000000000000000000000000000000000000000000000000000000000081565b600033610242610622565b6001600160a01b0316146102715760405162461bcd60e51b8152600401610268906109fc565b60405180910390fd5b6102a37f00000000000000000000000000000000000000000000000000000000000000006001600160a01b03166106fb565b905060006102d97f00000000000000000000000000000000000000000000000000000000000000006001600160a01b03166106fb565b90506001600160a01b0382166103485760405162461bcd60e51b815260206004820152602e60248201527f436f6d6d756e697479436f696e466163746f72793a20494e5354414e43455f4360448201526d149150551253d397d1905253115160921b6064820152608401610268565b60018054808201825560008290527fb10e2d527612073b26eecdfd717e6a320cf44b4afac2b0732d9fcbe2b7fa0cf60180546001600160a01b0319166001600160a01b03851690811790915590546040805192835260208301919091527f057c785134fbdb3be371ca5c0a3d3a62b636ec1ddea4d4dc301eb0bc967c34d0910160405180910390a160006104047f00000000000000000000000000000000000000000000000000000000000000006001600160a01b03166106fb565b6040516353dcd93760e01b81529091506001600160a01b038216906353dcd937906104359087908790600401610a7e565b600060405180830381600087803b15801561044f57600080fd5b505af1158015610463573d6000803e3d6000fd5b5050604051633e470dc560e11b81526001600160a01b037f0000000000000000000000000000000000000000000000000000000000000000811660048301527f000000000000000000000000000000000000000000000000000000000000000081166024830152898116604483015285811660648301526084820189905284811660a48301527f0000000000000000000000000000000000000000000000000000000000000000811660c48301527f0000000000000000000000000000000000000000000000000000000000000000811660e483015286169250637c8e1b8a915061010401600060405180830381600087803b15801561056257600080fd5b505af1158015610576573d6000803e3d6000fd5b50505050826001600160a01b031663f2fde38b6105903390565b6040518263ffffffff1660e01b81526004016105ac91906109ad565b600060405180830381600087803b1580156105c657600080fd5b505af11580156105da573d6000803e3d6000fd5b5050505050509392505050565b336105f0610622565b6001600160a01b0316146106165760405162461bcd60e51b8152600401610268906109fc565b6106206000610798565b565b6000546001600160a01b031690565b6001818154811061064157600080fd5b6000918252602090912001546001600160a01b0316905081565b33610664610622565b6001600160a01b03161461068a5760405162461bcd60e51b8152600401610268906109fc565b6001600160a01b0381166106ef5760405162461bcd60e51b815260206004820152602660248201527f4f776e61626c653a206e6577206f776e657220697320746865207a65726f206160448201526564647265737360d01b6064820152608401610268565b6106f881610798565b50565b6000604051733d602d80600a3d3981f3363d3d373d3d3d363d7360601b81528260601b60148201526e5af43d82803e903d91602b57fd5bf360881b60288201526037816000f09150506001600160a01b0381166107935760405162461bcd60e51b8152602060048201526016602482015275115490cc4c4d8dce8818dc99585d194819985a5b195960521b6044820152606401610268565b919050565b600080546001600160a01b038381166001600160a01b0319831681178455604051919092169283917f8be0079c531659141344cd1fd0a4f28419497f9722a3daafe3b4186f6b6457e09190a35050565b80356001600160a01b038116811461079357600080fd5b634e487b7160e01b600052604160045260246000fd5b6040516080810167ffffffffffffffff81118282101715610838576108386107ff565b60405290565b600082601f83011261084f57600080fd5b813567ffffffffffffffff8082111561086a5761086a6107ff565b604051601f8301601f19908116603f01168101908282118183101715610892576108926107ff565b816040528381528660208588010111156108ab57600080fd5b836020870160208301376000602085830101528094505050505092915050565b6000806000606084860312156108e057600080fd5b6108e9846107e8565b925060208401359150604084013567ffffffffffffffff8082111561090d57600080fd5b908501906080828803121561092157600080fd5b610929610815565b610932836107e8565b815260208301358281111561094657600080fd5b6109528982860161083e565b60208301525060408301358281111561096a57600080fd5b6109768982860161083e565b60408301525060608301358281111561098e57600080fd5b61099a8982860161083e565b6060830152508093505050509250925092565b6001600160a01b0391909116815260200190565b6000602082840312156109d357600080fd5b5035919050565b6000602082840312156109ec57600080fd5b6109f5826107e8565b9392505050565b6020808252818101527f4f776e61626c653a2063616c6c6572206973206e6f7420746865206f776e6572604082015260600190565b6000815180845260005b81811015610a5757602081850181015186830182015201610a3b565b81811115610a69576000602083870101525b50601f01601f19169290920160200192915050565b60408152600060018060a01b03808551166040840152602085015160806060850152610aad60c0850182610a31565b90506040860151603f1980868403016080870152610acb8383610a31565b925060608801519150808684030160a087015250610ae98282610a31565b93505050808416602084015250939250505056fea164736f6c634300080b000a",
  "linkReferences": {},
  "deployedLinkReferences": {}
}