{
  "_format": "hh-sol-artifact-1",
  "contractName": "CommunityCoin",
  "sourceName": "contracts/CommunityCoin.sol",
  "abi": [
    {
      "anonymous": false,
      "inputs": [
        {
          "indexed": true,
          "internalType": "address",
          "name": "owner",
          "type": "address"
        },
        {
          "indexed": true,
          "internalType": "address",
          "name": "spender",
          "type": "address"
        },
        {
          "indexed": false,
          "internalType": "uint256",
          "name": "value",
          "type": "uint256"
        }
      ],
      "name": "Approval",
      "type": "event"
    },
    {
      "anonymous": false,
      "inputs": [
        {
          "indexed": true,
          "internalType": "address",
          "name": "operator",
          "type": "address"
        },
        {
          "indexed": true,
          "internalType": "address",
          "name": "tokenHolder",
          "type": "address"
        }
      ],
      "name": "AuthorizedOperator",
      "type": "event"
    },
    {
      "anonymous": false,
      "inputs": [
        {
          "indexed": true,
          "internalType": "address",
          "name": "operator",
          "type": "address"
        },
        {
          "indexed": true,
          "internalType": "address",
          "name": "from",
          "type": "address"
        },
        {
          "indexed": false,
          "internalType": "uint256",
          "name": "amount",
          "type": "uint256"
        },
        {
          "indexed": false,
          "internalType": "bytes",
          "name": "data",
          "type": "bytes"
        },
        {
          "indexed": false,
          "internalType": "bytes",
          "name": "operatorData",
          "type": "bytes"
        }
      ],
      "name": "Burned",
      "type": "event"
    },
    {
      "anonymous": false,
      "inputs": [
        {
          "indexed": true,
          "internalType": "address",
          "name": "tokenA",
          "type": "address"
        },
        {
          "indexed": true,
          "internalType": "address",
          "name": "tokenB",
          "type": "address"
        },
        {
          "indexed": false,
          "internalType": "address",
          "name": "instance",
          "type": "address"
        }
      ],
      "name": "InstanceCreated",
      "type": "event"
    },
    {
      "anonymous": false,
      "inputs": [
        {
          "indexed": true,
          "internalType": "address",
          "name": "erc20token",
          "type": "address"
        },
        {
          "indexed": false,
          "internalType": "address",
          "name": "instance",
          "type": "address"
        }
      ],
      "name": "InstanceErc20Created",
      "type": "event"
    },
    {
      "anonymous": false,
      "inputs": [
        {
          "indexed": true,
          "internalType": "address",
          "name": "operator",
          "type": "address"
        },
        {
          "indexed": true,
          "internalType": "address",
          "name": "to",
          "type": "address"
        },
        {
          "indexed": false,
          "internalType": "uint256",
          "name": "amount",
          "type": "uint256"
        },
        {
          "indexed": false,
          "internalType": "bytes",
          "name": "data",
          "type": "bytes"
        },
        {
          "indexed": false,
          "internalType": "bytes",
          "name": "operatorData",
          "type": "bytes"
        }
      ],
      "name": "Minted",
      "type": "event"
    },
    {
      "anonymous": false,
      "inputs": [
        {
          "indexed": true,
          "internalType": "address",
          "name": "previousOwner",
          "type": "address"
        },
        {
          "indexed": true,
          "internalType": "address",
          "name": "newOwner",
          "type": "address"
        }
      ],
      "name": "OwnershipTransferred",
      "type": "event"
    },
    {
      "anonymous": false,
      "inputs": [
        {
          "indexed": true,
          "internalType": "address",
          "name": "operator",
          "type": "address"
        },
        {
          "indexed": true,
          "internalType": "address",
          "name": "tokenHolder",
          "type": "address"
        }
      ],
      "name": "RevokedOperator",
      "type": "event"
    },
    {
      "anonymous": false,
      "inputs": [
        {
          "indexed": true,
          "internalType": "address",
          "name": "token",
          "type": "address"
        },
        {
          "indexed": true,
          "internalType": "address",
          "name": "account",
          "type": "address"
        },
        {
          "indexed": false,
          "internalType": "uint256",
          "name": "amount",
          "type": "uint256"
        }
      ],
      "name": "RewardGranted",
      "type": "event"
    },
    {
      "anonymous": false,
      "inputs": [
        {
          "indexed": true,
          "internalType": "address",
          "name": "operator",
          "type": "address"
        },
        {
          "indexed": true,
          "internalType": "address",
          "name": "from",
          "type": "address"
        },
        {
          "indexed": true,
          "internalType": "address",
          "name": "to",
          "type": "address"
        },
        {
          "indexed": false,
          "internalType": "uint256",
          "name": "amount",
          "type": "uint256"
        },
        {
          "indexed": false,
          "internalType": "bytes",
          "name": "data",
          "type": "bytes"
        },
        {
          "indexed": false,
          "internalType": "bytes",
          "name": "operatorData",
          "type": "bytes"
        }
      ],
      "name": "Sent",
      "type": "event"
    },
    {
      "anonymous": false,
      "inputs": [
        {
          "indexed": true,
          "internalType": "address",
          "name": "account",
          "type": "address"
        },
        {
          "indexed": false,
          "internalType": "uint256",
          "name": "amount",
          "type": "uint256"
        },
        {
          "indexed": false,
          "internalType": "uint256",
          "name": "priceBeforeStake",
          "type": "uint256"
        }
      ],
      "name": "Staked",
      "type": "event"
    },
    {
      "anonymous": false,
      "inputs": [
        {
          "indexed": true,
          "internalType": "address",
          "name": "from",
          "type": "address"
        },
        {
          "indexed": true,
          "internalType": "address",
          "name": "to",
          "type": "address"
        },
        {
          "indexed": false,
          "internalType": "uint256",
          "name": "value",
          "type": "uint256"
        }
      ],
      "name": "Transfer",
      "type": "event"
    },
    {
      "inputs": [
        {
          "internalType": "uint256",
          "name": "amount",
          "type": "uint256"
        }
      ],
      "name": "addToCirculation",
      "outputs": [],
      "stateMutability": "nonpayable",
      "type": "function"
    },
    {
      "inputs": [
        {
          "internalType": "address",
          "name": "holder",
          "type": "address"
        },
        {
          "internalType": "address",
          "name": "spender",
          "type": "address"
        }
      ],
      "name": "allowance",
      "outputs": [
        {
          "internalType": "uint256",
          "name": "",
          "type": "uint256"
        }
      ],
      "stateMutability": "view",
      "type": "function"
    },
    {
      "inputs": [
        {
          "internalType": "address",
          "name": "spender",
          "type": "address"
        },
        {
          "internalType": "uint256",
          "name": "value",
          "type": "uint256"
        }
      ],
      "name": "approve",
      "outputs": [
        {
          "internalType": "bool",
          "name": "",
          "type": "bool"
        }
      ],
      "stateMutability": "nonpayable",
      "type": "function"
    },
    {
      "inputs": [
        {
          "internalType": "address",
          "name": "operator",
          "type": "address"
        }
      ],
      "name": "authorizeOperator",
      "outputs": [],
      "stateMutability": "nonpayable",
      "type": "function"
    },
    {
      "inputs": [
        {
          "internalType": "address",
          "name": "tokenHolder",
          "type": "address"
        }
      ],
      "name": "balanceOf",
      "outputs": [
        {
          "internalType": "uint256",
          "name": "",
          "type": "uint256"
        }
      ],
      "stateMutability": "view",
      "type": "function"
    },
    {
      "inputs": [
        {
          "internalType": "uint256",
          "name": "amount",
          "type": "uint256"
        },
        {
          "internalType": "bytes",
          "name": "data",
          "type": "bytes"
        }
      ],
      "name": "burn",
      "outputs": [],
      "stateMutability": "nonpayable",
      "type": "function"
    },
    {
      "inputs": [],
      "name": "decimals",
      "outputs": [
        {
          "internalType": "uint8",
          "name": "",
          "type": "uint8"
        }
      ],
      "stateMutability": "pure",
      "type": "function"
    },
    {
      "inputs": [],
      "name": "defaultOperators",
      "outputs": [
        {
          "internalType": "address[]",
          "name": "",
          "type": "address[]"
        }
      ],
      "stateMutability": "view",
      "type": "function"
    },
    {
      "inputs": [
        {
          "internalType": "bytes32",
          "name": "role",
          "type": "bytes32"
        },
        {
          "internalType": "address",
          "name": "account",
          "type": "address"
        }
      ],
      "name": "grantRole",
      "outputs": [],
      "stateMutability": "nonpayable",
      "type": "function"
    },
    {
      "inputs": [],
      "name": "granularity",
      "outputs": [
        {
          "internalType": "uint256",
          "name": "",
          "type": "uint256"
        }
      ],
      "stateMutability": "view",
      "type": "function"
    },
    {
      "inputs": [],
      "name": "hook",
      "outputs": [
        {
          "internalType": "contract IHook",
          "name": "",
          "type": "address"
        }
      ],
      "stateMutability": "view",
      "type": "function"
    },
    {
      "inputs": [
        {
          "internalType": "address",
          "name": "impl",
          "type": "address"
        },
        {
          "internalType": "address",
          "name": "implErc20",
          "type": "address"
        },
        {
          "internalType": "address",
          "name": "hook_",
          "type": "address"
        },
        {
          "internalType": "address",
          "name": "communityCoinInstanceAddr",
          "type": "address"
        },
        {
          "internalType": "uint256",
          "name": "discountSensitivity_",
          "type": "uint256"
        },
        {
          "internalType": "address",
          "name": "rolesManagementAddr_",
          "type": "address"
        },
        {
          "internalType": "address",
          "name": "reserveToken_",
          "type": "address"
        },
        {
          "internalType": "address",
          "name": "tradedToken_",
          "type": "address"
        }
      ],
      "name": "initialize",
      "outputs": [],
      "stateMutability": "nonpayable",
      "type": "function"
    },
    {
      "inputs": [],
      "name": "instanceManagment",
      "outputs": [
        {
          "internalType": "contract ICommunityStakingPoolFactory",
          "name": "",
          "type": "address"
        }
      ],
      "stateMutability": "view",
      "type": "function"
    },
    {
      "inputs": [
        {
          "internalType": "address",
          "name": "operator",
          "type": "address"
        },
        {
          "internalType": "address",
          "name": "tokenHolder",
          "type": "address"
        }
      ],
      "name": "isOperatorFor",
      "outputs": [
        {
          "internalType": "bool",
          "name": "",
          "type": "bool"
        }
      ],
      "stateMutability": "view",
      "type": "function"
    },
    {
      "inputs": [
        {
          "internalType": "address",
          "name": "forwarder",
          "type": "address"
        }
      ],
      "name": "isTrustedForwarder",
      "outputs": [
        {
          "internalType": "bool",
          "name": "",
          "type": "bool"
        }
      ],
      "stateMutability": "view",
      "type": "function"
    },
    {
      "inputs": [
        {
          "internalType": "address",
          "name": "account",
          "type": "address"
        },
        {
          "internalType": "uint256",
          "name": "amount",
          "type": "uint256"
        },
        {
          "internalType": "uint256",
          "name": "priceBeforeStake",
          "type": "uint256"
        }
      ],
      "name": "issueWalletTokens",
      "outputs": [],
      "stateMutability": "nonpayable",
      "type": "function"
    },
    {
      "inputs": [],
      "name": "name",
      "outputs": [
        {
          "internalType": "string",
          "name": "",
          "type": "string"
        }
      ],
      "stateMutability": "view",
      "type": "function"
    },
    {
      "inputs": [
        {
          "internalType": "address",
          "name": "account",
          "type": "address"
        },
        {
          "internalType": "uint256",
          "name": "amount",
          "type": "uint256"
        },
        {
          "internalType": "bytes",
          "name": "data",
          "type": "bytes"
        },
        {
          "internalType": "bytes",
          "name": "operatorData",
          "type": "bytes"
        }
      ],
      "name": "operatorBurn",
      "outputs": [],
      "stateMutability": "nonpayable",
      "type": "function"
    },
    {
      "inputs": [
        {
          "internalType": "address",
          "name": "sender",
          "type": "address"
        },
        {
          "internalType": "address",
          "name": "recipient",
          "type": "address"
        },
        {
          "internalType": "uint256",
          "name": "amount",
          "type": "uint256"
        },
        {
          "internalType": "bytes",
          "name": "data",
          "type": "bytes"
        },
        {
          "internalType": "bytes",
          "name": "operatorData",
          "type": "bytes"
        }
      ],
      "name": "operatorSend",
      "outputs": [],
      "stateMutability": "nonpayable",
      "type": "function"
    },
    {
      "inputs": [],
      "name": "owner",
      "outputs": [
        {
          "internalType": "address",
          "name": "",
          "type": "address"
        }
      ],
      "stateMutability": "view",
      "type": "function"
    },
    {
      "inputs": [
        {
          "internalType": "uint64",
          "name": "duration",
          "type": "uint64"
        },
        {
          "components": [
            {
              "internalType": "address",
              "name": "account",
              "type": "address"
            },
            {
              "internalType": "uint256",
              "name": "amount",
              "type": "uint256"
            }
          ],
          "internalType": "struct IStructs.StructAddrUint256[]",
          "name": "donations",
          "type": "tuple[]"
        },
        {
          "internalType": "uint64",
          "name": "reserveTokenClaimFraction",
          "type": "uint64"
        },
        {
          "internalType": "uint64",
          "name": "tradedTokenClaimFraction",
          "type": "uint64"
        },
        {
          "internalType": "uint64",
          "name": "lpClaimFraction",
          "type": "uint64"
        },
        {
          "internalType": "uint64",
          "name": "numerator",
          "type": "uint64"
        },
        {
          "internalType": "uint64",
          "name": "denominator",
          "type": "uint64"
        }
      ],
      "name": "produce",
      "outputs": [
        {
          "internalType": "address",
          "name": "instance",
          "type": "address"
        }
      ],
      "stateMutability": "nonpayable",
      "type": "function"
    },
    {
      "inputs": [
        {
          "internalType": "address",
          "name": "tokenErc20",
          "type": "address"
        },
        {
          "internalType": "uint64",
          "name": "duration",
          "type": "uint64"
        },
        {
          "components": [
            {
              "internalType": "address",
              "name": "account",
              "type": "address"
            },
            {
              "internalType": "uint256",
              "name": "amount",
              "type": "uint256"
            }
          ],
          "internalType": "struct IStructs.StructAddrUint256[]",
          "name": "donations",
          "type": "tuple[]"
        },
        {
          "internalType": "uint64",
          "name": "numerator",
          "type": "uint64"
        },
        {
          "internalType": "uint64",
          "name": "denominator",
          "type": "uint64"
        }
      ],
      "name": "produce",
      "outputs": [
        {
          "internalType": "address",
          "name": "instance",
          "type": "address"
        }
      ],
      "stateMutability": "nonpayable",
      "type": "function"
    },
    {
      "inputs": [
        {
          "internalType": "uint256",
          "name": "amount",
          "type": "uint256"
        },
        {
          "internalType": "address[]",
          "name": "preferredInstances",
          "type": "address[]"
        }
      ],
      "name": "redeem",
      "outputs": [],
      "stateMutability": "nonpayable",
      "type": "function"
    },
    {
      "inputs": [
        {
          "internalType": "uint256",
          "name": "amount",
          "type": "uint256"
        }
      ],
      "name": "redeem",
      "outputs": [],
      "stateMutability": "nonpayable",
      "type": "function"
    },
    {
      "inputs": [
        {
          "internalType": "uint256",
          "name": "amount",
          "type": "uint256"
        }
      ],
      "name": "redeemAndRemoveLiquidity",
      "outputs": [],
      "stateMutability": "nonpayable",
      "type": "function"
    },
    {
      "inputs": [
        {
          "internalType": "uint256",
          "name": "amount",
          "type": "uint256"
        },
        {
          "internalType": "address[]",
          "name": "preferredInstances",
          "type": "address[]"
        }
      ],
      "name": "redeemAndRemoveLiquidity",
      "outputs": [],
      "stateMutability": "nonpayable",
      "type": "function"
    },
    {
      "inputs": [
        {
          "internalType": "uint256",
          "name": "amount",
          "type": "uint256"
        }
      ],
      "name": "removeFromCirculation",
      "outputs": [],
      "stateMutability": "nonpayable",
      "type": "function"
    },
    {
      "inputs": [],
      "name": "renounceOwnership",
      "outputs": [],
      "stateMutability": "nonpayable",
      "type": "function"
    },
    {
      "inputs": [
        {
          "internalType": "address",
          "name": "operator",
          "type": "address"
        }
      ],
      "name": "revokeOperator",
      "outputs": [],
      "stateMutability": "nonpayable",
      "type": "function"
    },
    {
      "inputs": [
        {
          "internalType": "bytes32",
          "name": "role",
          "type": "bytes32"
        },
        {
          "internalType": "address",
          "name": "account",
          "type": "address"
        }
      ],
      "name": "revokeRole",
      "outputs": [],
      "stateMutability": "nonpayable",
      "type": "function"
    },
    {
      "inputs": [],
      "name": "rolesManagement",
      "outputs": [
        {
          "internalType": "contract CommunityRolesManagement",
          "name": "",
          "type": "address"
        }
      ],
      "stateMutability": "view",
      "type": "function"
    },
    {
      "inputs": [
        {
          "internalType": "address",
          "name": "recipient",
          "type": "address"
        },
        {
          "internalType": "uint256",
          "name": "amount",
          "type": "uint256"
        },
        {
          "internalType": "bytes",
          "name": "data",
          "type": "bytes"
        }
      ],
      "name": "send",
      "outputs": [],
      "stateMutability": "nonpayable",
      "type": "function"
    },
    {
      "inputs": [
        {
          "internalType": "address",
          "name": "forwarder",
          "type": "address"
        }
      ],
      "name": "setTrustedForwarder",
      "outputs": [],
      "stateMutability": "nonpayable",
      "type": "function"
    },
    {
      "inputs": [
        {
          "internalType": "address",
          "name": "account",
          "type": "address"
        },
        {
          "internalType": "uint256",
          "name": "amount",
          "type": "uint256"
        },
        {
          "internalType": "address[]",
          "name": "preferredInstances",
          "type": "address[]"
        },
        {
          "internalType": "address[][]",
          "name": "swapPaths",
          "type": "address[][]"
        }
      ],
      "name": "simulateRedeemAndRemoveLiquidity",
      "outputs": [
        {
          "internalType": "address",
          "name": "",
          "type": "address"
        },
        {
          "internalType": "uint256",
          "name": "",
          "type": "uint256"
        }
      ],
      "stateMutability": "view",
      "type": "function"
    },
    {
      "inputs": [],
      "name": "symbol",
      "outputs": [
        {
          "internalType": "string",
          "name": "",
          "type": "string"
        }
      ],
      "stateMutability": "view",
      "type": "function"
    },
    {
      "inputs": [
        {
          "internalType": "address",
          "name": "operator",
          "type": "address"
        },
        {
          "internalType": "address",
          "name": "from",
          "type": "address"
        },
        {
          "internalType": "address",
          "name": "to",
          "type": "address"
        },
        {
          "internalType": "uint256",
          "name": "amount",
          "type": "uint256"
        },
        {
          "internalType": "bytes",
          "name": "userData",
          "type": "bytes"
        },
        {
          "internalType": "bytes",
          "name": "operatorData",
          "type": "bytes"
        }
      ],
      "name": "tokensReceived",
      "outputs": [],
      "stateMutability": "nonpayable",
      "type": "function"
    },
    {
      "inputs": [],
      "name": "totalSupply",
      "outputs": [
        {
          "internalType": "uint256",
          "name": "",
          "type": "uint256"
        }
      ],
      "stateMutability": "view",
      "type": "function"
    },
    {
      "inputs": [
        {
          "internalType": "address",
          "name": "recipient",
          "type": "address"
        },
        {
          "internalType": "uint256",
          "name": "amount",
          "type": "uint256"
        }
      ],
      "name": "transfer",
      "outputs": [
        {
          "internalType": "bool",
          "name": "",
          "type": "bool"
        }
      ],
      "stateMutability": "nonpayable",
      "type": "function"
    },
    {
      "inputs": [
        {
          "internalType": "address",
          "name": "holder",
          "type": "address"
        },
        {
          "internalType": "address",
          "name": "recipient",
          "type": "address"
        },
        {
          "internalType": "uint256",
          "name": "amount",
          "type": "uint256"
        }
      ],
      "name": "transferFrom",
      "outputs": [
        {
          "internalType": "bool",
          "name": "",
          "type": "bool"
        }
      ],
      "stateMutability": "nonpayable",
      "type": "function"
    },
    {
      "inputs": [
        {
          "internalType": "address",
          "name": "newOwner",
          "type": "address"
        }
      ],
      "name": "transferOwnership",
      "outputs": [],
      "stateMutability": "nonpayable",
      "type": "function"
    },
    {
      "inputs": [
        {
          "internalType": "uint256",
          "name": "amount",
          "type": "uint256"
        }
      ],
      "name": "unstake",
      "outputs": [],
      "stateMutability": "nonpayable",
      "type": "function"
    },
    {
      "inputs": [
        {
          "internalType": "uint256",
          "name": "amount",
          "type": "uint256"
        }
      ],
      "name": "unstakeAndRemoveLiquidity",
      "outputs": [],
      "stateMutability": "nonpayable",
      "type": "function"
    },
    {
      "inputs": [
        {
          "internalType": "address",
          "name": "account",
          "type": "address"
        }
      ],
      "name": "viewLockedWalletTokens",
      "outputs": [
        {
          "internalType": "uint256",
          "name": "amount",
          "type": "uint256"
        }
      ],
      "stateMutability": "view",
      "type": "function"
    },
    {
      "inputs": [
        {
          "internalType": "address",
          "name": "account",
          "type": "address"
        }
      ],
      "name": "viewLockedWalletTokensList",
      "outputs": [
        {
          "internalType": "uint256[][]",
          "name": "",
          "type": "uint256[][]"
        }
      ],
      "stateMutability": "view",
      "type": "function"
    }
  ],
  "bytecode": "0x608060405234801561001057600080fd5b50615db580620000216000396000f3fe608060405234801561001057600080fd5b50600436106102325760003560e01c8063959b8c3f11610131578063cea7f508116100b3578063cea7f508146104b1578063d547741f146104c4578063d95b6371146104d7578063da742228146104ea578063db006a75146104fd578063dd62ed3e14610510578063e4b739e014610523578063f2fde38b14610544578063fad8b32a14610557578063fc673c4f1461056a578063fe9d93031461057d57600080fd5b8063959b8c3f146103de57806395d89b41146103f15780639bd9bbc6146103f95780639efb64dd1461040c578063a9059cbb1461041f578063ad259b6014610432578063bef584b214610445578063c44f23b614610465578063c69f195b14610478578063c75aa5671461048b578063c7ba1ec21461049e57600080fd5b8063313ce567116101ba578063313ce56714610333578063556f0dc714610342578063572b6c051461034957806362ad1b831461035c578063696bd78b1461036f57806370a0823114610382578063715018a6146103955780637c0a40c51461039d5780637c8e1b8a146103b05780637f5a7c7b146103c35780638da5cb5b146103d657600080fd5b806223de29146102375780624f74f61461024c57806306e485381461025f57806306fdde031461027d5780630959bd1a14610292578063095ea7b3146102a557806310c545cd146102c857806318160ddd146102e857806323b872dd146102fa5780632e17de781461030d5780632f2ff15d14610320575b600080fd5b61024a610245366004614a32565b610590565b005b61024a61025a366004614ae2565b61068e565b6102676106f3565b6040516102749190614b3f565b60405180910390f35b610285610755565b6040516102749190614b9f565b61024a6102a0366004614cda565b6107de565b6102b86102b3366004614d20565b61081a565b6040519015158152602001610274565b60ce546102db906001600160a01b031681565b6040516102749190614d4c565b6067545b604051908152602001610274565b6102b8610308366004614d60565b61083e565b61024a61031b366004614ae2565b610973565b61024a61032e366004614da1565b6109ce565b60405160128152602001610274565b60016102ec565b6102b8610357366004614dd1565b610a75565b61024a61036a366004614e5d565b610a80565b61024a61037d366004614ae2565b610ac3565b6102ec610390366004614dd1565b610b80565b61024a610b9b565b6102ec6103ab366004614dd1565b610be6565b61024a6103be366004614eef565b610bf1565b60cc546102db906001600160a01b031681565b6102db610d07565b61024a6103ec366004614dd1565b610d16565b610285610e7f565b61024a610407366004614f8f565b610e8e565b61024a61041a366004614fe7565b610eb8565b6102b861042d366004614d20565b61110c565b61024a610440366004614ae2565b6111c6565b610458610453366004614dd1565b611283565b604051610274919061504c565b6102db61047336600461514b565b61128e565b61024a610486366004614ae2565b6112ea565b61024a610499366004614cda565b61133d565b60cd546102db906001600160a01b031681565b6102db6104bf3660046151f9565b611379565b61024a6104d2366004614da1565b6113d1565b6102b86104e5366004615282565b611442565b61024a6104f8366004614dd1565b6114e4565b61024a61050b366004614ae2565b6115ab565b6102ec61051e366004615282565b6115f6565b6105366105313660046152b0565b611621565b6040516102749291906153a1565b61024a610552366004614dd1565b6116c5565b61024a610565366004614dd1565b611789565b61024a6105783660046153ba565b6118f0565b61024a61058b366004615439565b61192f565b30610599611955565b6001600160a01b03161480156105b757506001600160a01b03861630145b6106045760405162461bcd60e51b81526020600482015260196024820152786f776e20746f6b656e73207065726d6974746564206f6e6c7960381b60448201526064015b60405180910390fd5b60ce546040516394f1d57760e01b81526001600160a01b03909116906394f1d57790610634908a90600401614d4c565b60006040518083038186803b15801561064c57600080fd5b505afa158015610660573d6000803e3d6000fd5b50506040805160008152602081019091526106849250309150899088906002611964565b5050505050505050565b6002609a5414156106b15760405162461bcd60e51b81526004016105fb90615475565b6002609a5560006106c0611955565b90506106cc8183611b30565b6040805160008152602081019091526106ea90829084906001611bc1565b50506001609a55565b6060606a80548060200260200160405190810160405280929190818152602001828054801561074b57602002820191906000526020600020905b81546001600160a01b0316815260019091019060200180831161072d575b5050505050905090565b606060688054610764906154ac565b80601f0160208091040260200160405190810160405280929190818152602001828054610790906154ac565b801561074b5780601f106107b25761010080835404028352916020019161074b565b820191906000526020600020905b8154815290600101906020018083116107c057509395945050505050565b6002609a5414156108015760405162461bcd60e51b81526004016105fb90615475565b6002609a556106ea610811611955565b83836002611cdb565b600080610825611955565b9050610832818585611d48565b60019150505b92915050565b60006001600160a01b0383166108665760405162461bcd60e51b81526004016105fb906154e7565b6001600160a01b0384166108cb5760405162461bcd60e51b815260206004820152602660248201527f4552433737373a207472616e736665722066726f6d20746865207a65726f206160448201526564647265737360d01b60648201526084016105fb565b60006108d5611955565b9050610903818686866040518060200160405280600081525060405180602001604052806000815250611e6f565b61090e858285611f8f565b61093a818686866040518060200160405280600081525060405180602001604052806000815250612003565b6109688186868660405180602001604052806000815250604051806020016040528060008152506000612163565b506001949350505050565b6002609a5414156109965760405162461bcd60e51b81526004016105fb90615475565b6002609a5560006109a5611955565b90506109b18183611b30565b604080516000808252602082019092526106ea9183918591611bc1565b6109d6611955565b6001600160a01b03166109e7610d07565b6001600160a01b031614610a0d5760405162461bcd60e51b81526004016105fb9061552b565b60ce54604051632f2ff15d60e01b81526001600160a01b0390911690632f2ff15d90610a3f9085908590600401615560565b600060405180830381600087803b158015610a5957600080fd5b505af1158015610a6d573d6000803e3d6000fd5b505050505050565b600061083882612316565b610a91610a8b611955565b86611442565b610aad5760405162461bcd60e51b81526004016105fb90615577565b610abc8585858585600161232a565b5050505050565b6002609a541415610ae65760405162461bcd60e51b81526004016105fb90615475565b6002609a556000610af5611955565b60ce5460405163079122d560e11b81529192506001600160a01b031690630f2245aa90610b26908490600401614d4c565b60006040518083038186803b158015610b3e57600080fd5b505afa158015610b52573d6000803e3d6000fd5b505050506106ea81836040518060200160405280600081525060405180602001604052806000815250612418565b6001600160a01b031660009081526066602052604090205490565b610ba3611955565b6001600160a01b0316610bb4610d07565b6001600160a01b031614610bda5760405162461bcd60e51b81526004016105fb9061552b565b610be46000612426565b565b600061083882612478565b600054610100900460ff16610c0c5760005460ff1615610c10565b303b155b610c735760405162461bcd60e51b815260206004820152602e60248201527f496e697469616c697a61626c653a20636f6e747261637420697320616c72656160448201526d191e481a5b9a5d1a585b1a5e995960921b60648201526084016105fb565b600054610100900460ff16158015610c95576000805461ffff19166101011790555b610cea6040518060400160405280600e81526020016d5374616b696e6720546f6b656e7360901b815250604051806040016040528060058152602001645354414b4560d81b8152508b8b8b8b8b8b8b8b6125b6565b8015610cfc576000805461ff00191690555b505050505050505050565b6033546001600160a01b031690565b806001600160a01b0316610d28611955565b6001600160a01b03161415610d8b5760405162461bcd60e51b8152602060048201526024808201527f4552433737373a20617574686f72697a696e672073656c66206173206f70657260448201526330ba37b960e11b60648201526084016105fb565b6001600160a01b0381166000908152606b602052604090205460ff1615610dee57606d6000610db8611955565b6001600160a01b03908116825260208083019390935260409182016000908120918516815292529020805460ff19169055610e35565b6001606c6000610dfc611955565b6001600160a01b03908116825260208083019390935260409182016000908120918616815292529020805460ff19169115159190911790555b610e3d611955565b6001600160a01b0316816001600160a01b03167ff4caeb2d6ca8932a215a353d0703c326ec2d81fc68170f320eb2ab49e9df61f960405160405180910390a350565b606060698054610764906154ac565b610eb3610e99611955565b84848460405180602001604052806000815250600161232a565b505050565b60cd54604051637ca2500160e01b815233916000916001600160a01b0390911690637ca2500190610eed908590600401614d4c565b61016060405180830381865afa158015610f0b573d6000803e3d6000fd5b505050506040513d601f19601f82011682018060405250810190610f2f91906155ff565b905080610100015115156001151514610f4757600080fd5b6001600160a01b038216600090815260d4602052604081208054869290610f6f9084906156ef565b909155505060cc546001600160a01b0316156110085760cc5460208201516040516316f3a59960e11b81526001600160a01b03858116600483015288811660248301526001600160401b03909216604482015260648101879052911690632de74b3290608401600060405180830381600087803b158015610fef57600080fd5b505af1158015611003573d6000803e3d6000fd5b505050505b6001600160a01b038516600090815260d56020526040812080548692906110309084906156ef565b925050819055508360d0600082825461104991906156ef565b909155505060e081015161105e90600a6157eb565b60c082015161106e90600a6157eb565b6110789086615800565b6110829190615835565b93506110ae85856040518060200160405280600081525060405180602001604052806000815250612418565b60408051858152602081018590526001600160a01b038716917f1449c6dd7851abc30abf37f57715f492010519147cc2652fbc38202c18a6ee90910160405180910390a2610a6d858583602001516001600160401b03166000612775565b60006001600160a01b0383166111345760405162461bcd60e51b81526004016105fb906154e7565b600061113e611955565b905061116c818286866040518060200160405280600081525060405180602001604052806000815250611e6f565b611198818286866040518060200160405280600081525060405180602001604052806000815250612003565b6108328182868660405180602001604052806000815250604051806020016040528060008152506000612163565b6002609a5414156111e95760405162461bcd60e51b81526004016105fb90615475565b6002609a5560006111f8611955565b60ce5460405163079122d560e11b81529192506001600160a01b031690630f2245aa90611229908490600401614d4c565b60006040518083038186803b15801561124157600080fd5b505afa158015611255573d6000803e3d6000fd5b505050506106ea8183604051806020016040528060008152506040518060200160405280600081525061280f565b6060610838826129ca565b6000611298611955565b6001600160a01b03166112a9610d07565b6001600160a01b0316146112cf5760405162461bcd60e51b81526004016105fb9061552b565b6112de88888888888888612c00565b98975050505050505050565b6002609a54141561130d5760405162461bcd60e51b81526004016105fb90615475565b6002609a5561133561131d611955565b60408051600081526020810190915283906003611cdb565b506001609a55565b6002609a5414156113605760405162461bcd60e51b81526004016105fb90615475565b6002609a556106ea611370611955565b83836003611cdb565b6000611383611955565b6001600160a01b0316611394610d07565b6001600160a01b0316146113ba5760405162461bcd60e51b81526004016105fb9061552b565b6113c78686868686612ce9565b9695505050505050565b6113d9611955565b6001600160a01b03166113ea610d07565b6001600160a01b0316146114105760405162461bcd60e51b81526004016105fb9061552b565b60ce5460405163d547741f60e01b81526001600160a01b039091169063d547741f90610a3f9085908590600401615560565b6000816001600160a01b0316836001600160a01b031614806114ad57506001600160a01b0383166000908152606b602052604090205460ff1680156114ad57506001600160a01b038083166000908152606d602090815260408083209387168352929052205460ff16155b806114dd57506001600160a01b038083166000908152606c602090815260408083209387168352929052205460ff165b9392505050565b6114ec611955565b6001600160a01b03166114fd610d07565b6001600160a01b0316146115235760405162461bcd60e51b81526004016105fb9061552b565b806001600160a01b0316611535610d07565b6001600160a01b031614156115895760405162461bcd60e51b815260206004820152601a6024820152792327a92ba0a92222a92fa1a0a72fa727aa2fa122afa7aba722a960311b60448201526064016105fb565b606580546001600160a01b0319166001600160a01b0392909216919091179055565b6002609a5414156115ce5760405162461bcd60e51b81526004016105fb90615475565b6002609a556113356115de611955565b60408051600081526020810190915283906002611cdb565b6001600160a01b039182166000908152606e6020908152604080832093909416825291909152205490565b60008060008061163d888888600361163860675490565b612db1565b5060cd5460405163271294bb60e11b81529294509092506001600160a01b031690634e2529769061167690859085908a90600401615849565b6040805180830381865afa158015611692573d6000803e3d6000fd5b505050506040513d601f19601f820116820180604052508101906116b69190615900565b93509350505094509492505050565b6116cd611955565b6001600160a01b03166116de610d07565b6001600160a01b0316146117045760405162461bcd60e51b81526004016105fb9061552b565b6065546001600160a01b03163314156117565760405162461bcd60e51b81526020600482015260146024820152732222a724a2a22fa327a92fa327a92ba0a92222a960611b60448201526064016105fb565b6065546001600160a01b038281169116141561177d57606580546001600160a01b03191690555b611786816133d3565b50565b611791611955565b6001600160a01b0316816001600160a01b031614156117fc5760405162461bcd60e51b815260206004820152602160248201527f4552433737373a207265766f6b696e672073656c66206173206f70657261746f6044820152603960f91b60648201526084016105fb565b6001600160a01b0381166000908152606b602052604090205460ff1615611868576001606d600061182b611955565b6001600160a01b03908116825260208083019390935260409182016000908120918616815292529020805460ff19169115159190911790556118a6565b606c6000611874611955565b6001600160a01b03908116825260208083019390935260409182016000908120918516815292529020805460ff191690555b6118ae611955565b6001600160a01b0316816001600160a01b03167f50546e66e5f44d728365dc3908c63bc5cfeeab470722c1677e3073a6ac294aa160405160405180910390a350565b6119016118fb611955565b85611442565b61191d5760405162461bcd60e51b81526004016105fb90615577565b6119298484848461280f565b50505050565b61195161193a611955565b83836040518060200160405280600081525061280f565b5050565b600061195f613480565b905090565b600061197086856134a9565b905060d1548411156119945760405162461bcd60e51b81526004016105fb9061592e565b60008060006119a68888888888612db1565b92509250925060005b81811015611b2457600060d460008684815181106119cf576119cf61595c565b60200260200101516001600160a01b03166001600160a01b03168152602001908152602001600020541115611b1257828181518110611a1057611a1061595c565b602002602001015160d46000868481518110611a2e57611a2e61595c565b60200260200101516001600160a01b03166001600160a01b031681526020019081526020016000206000828254611a659190615972565b92505081905550828181518110611a7e57611a7e61595c565b602002602001015160d16000828254611a979190615972565b92505081905550611b1289858381518110611ab457611ab461595c565b6020026020010151858481518110611ace57611ace61595c565b6020026020010151896040518060400160405280602081526020017f4572726f72207768656e2072656465656d20696e20616e20696e7374616e6365815250613544565b80611b1c81615989565b9150506119af565b50505050505050505050565b6000611b3b83610b80565b905080821115611b5d5760405162461bcd60e51b81526004016105fb9061592e565b6000611b6884612478565b90506000611b768484615972565b905080821115610abc5760405162461bcd60e51b815260206004820152601660248201527514d51052d157d393d517d5539313d0d2d15117d6515560521b60448201526064016105fb565b6000611bcd85856134a9565b90506000806000611be18888888888612db1565b92509250925060005b81811015610cfc57828181518110611c0457611c0461595c565b602002602001015160d46000868481518110611c2257611c2261595c565b60200260200101516001600160a01b03166001600160a01b031681526020019081526020016000206000828254611c599190615972565b92505081905550611cc989858381518110611c7657611c7661595c565b6020026020010151858481518110611c9057611c9061595c565b602002602001015189604051806040016040528060128152602001714572726f72207768656e20756e7374616b6560701b815250613544565b80611cd381615989565b915050611bea565b60ce546040516394f1d57760e01b81526001600160a01b03909116906394f1d57790611d0b908790600401614d4c565b60006040518083038186803b158015611d2357600080fd5b505afa158015611d37573d6000803e3d6000fd5b505050506119298485858585611964565b6001600160a01b038316611dac5760405162461bcd60e51b815260206004820152602560248201527f4552433737373a20617070726f76652066726f6d20746865207a65726f206164604482015264647265737360d81b60648201526084016105fb565b6001600160a01b038216611e0e5760405162461bcd60e51b815260206004820152602360248201527f4552433737373a20617070726f766520746f20746865207a65726f206164647260448201526265737360e81b60648201526084016105fb565b6001600160a01b038381166000818152606e602090815260408083209487168084529482529182902085905590518481527f8c5be1e5ebec7d5bd14f71427d1e84f3dd0314c0f7b2291e5b200ac8c7c3b925910160405180910390a3505050565b60405163555ddc6560e11b8152600090731820a4b7618bde71dce8cdc73aab6c95905fad249063aabbb8ca90611ecb9089907f29ddb589b1fb5fc7cf394961c1adf5f8c6454761adf795e67fe149f658abe895906004016153a1565b602060405180830381865afa158015611ee8573d6000803e3d6000fd5b505050506040513d601f19601f82011682018060405250810190611f0c91906159a4565b90506001600160a01b03811615611f8657604051633ad5cbc160e11b81526001600160a01b038216906375ab978290611f53908a908a908a908a908a908a906004016159c1565b600060405180830381600087803b158015611f6d57600080fd5b505af1158015611f81573d6000803e3d6000fd5b505050505b50505050505050565b6000611f9b84846115f6565b905060001981146119295781811015611ff65760405162461bcd60e51b815260206004820152601e60248201527f4552433737373a20696e73756666696369656e7420616c6c6f77616e6365000060448201526064016105fb565b6119298484848403611d48565b61200f868686866136a3565b6001600160a01b038516600090815260666020526040902054838110156120885760405162461bcd60e51b815260206004820152602760248201527f4552433737373a207472616e7366657220616d6f756e7420657863656564732060448201526662616c616e636560c81b60648201526084016105fb565b6001600160a01b038087166000908152606660205260408082208785039055918716815290812080548692906120bf9084906156ef565b92505081905550846001600160a01b0316866001600160a01b0316886001600160a01b03167f06b541ddaa720db2b10a4d0cdac39b8d360425fc073085fac19bc8261467798787878760405161211793929190615a1b565b60405180910390a4846001600160a01b0316866001600160a01b0316600080516020615d898339815191528660405161215291815260200190565b60405180910390a350505050505050565b60405163555ddc6560e11b8152600090731820a4b7618bde71dce8cdc73aab6c95905fad249063aabbb8ca906121bf9089907fb281fc8c12954d22544db45de3159a39272895b169a852b314f9cc762e44c53b906004016153a1565b602060405180830381865afa1580156121dc573d6000803e3d6000fd5b505050506040513d601f19601f8201168201806040525081019061220091906159a4565b90506001600160a01b0381161561227c576040516223de2960e01b81526001600160a01b038216906223de2990612245908b908b908b908b908b908b906004016159c1565b600060405180830381600087803b15801561225f57600080fd5b505af1158015612273573d6000803e3d6000fd5b50505050610684565b8115610684576001600160a01b0386163b156106845760405162461bcd60e51b815260206004820152604d60248201527f4552433737373a20746f6b656e20726563697069656e7420636f6e747261637460448201527f20686173206e6f20696d706c656d656e74657220666f7220455243373737546f60648201526c1ad95b9cd49958da5c1a595b9d609a1b608482015260a4016105fb565b6065546001600160a01b0391821691161490565b6001600160a01b03861661238b5760405162461bcd60e51b815260206004820152602260248201527f4552433737373a2073656e642066726f6d20746865207a65726f206164647265604482015261737360f01b60648201526084016105fb565b6001600160a01b0385166123e15760405162461bcd60e51b815260206004820181905260248201527f4552433737373a2073656e6420746f20746865207a65726f206164647265737360448201526064016105fb565b60006123eb611955565b90506123fb818888888888611e6f565b612409818888888888612003565b611f8681888888888888612163565b6119298484848460016138e4565b603380546001600160a01b038381166001600160a01b0319831681179093556040519116919082907f8be0079c531659141344cd1fd0a4f28419497f9722a3daafe3b4186f6b6457e090600090a35050565b60008080805b6001600160a01b038516600090815260986020526040902061249f90613a23565b8110156125ae576001600160a01b03851660009081526098602052604090206124c89082613a2d565b925082421161259c576124db4284615972565b6001600160a01b038616600090815260986020908152604080832087845260020190915290205461250c9190615800565b6001600160a01b0386166000908152609860209081526040808320878452600290810190925290912090810154600190910154919350908310612582576001600160a01b038616600090815260986020908152604080832087845260020190915290206001015461257d9084615972565b612585565b60005b61258f90866156ef565b61259991906156ef565b93505b806125a681615989565b91505061247e565b505050919050565b600054610100900460ff166125dd5760405162461bcd60e51b81526004016105fb90615a46565b6125e5613a39565b604080516000815260208101909152612601908b908b90613a7a565b61260d62015180613aac565b612615613b0d565b60cd80546001600160a01b0319166001600160a01b0387811691821790925560405163485cc95560e01b81528a8316600482015291891660248301529063485cc95590604401600060405180830381600087803b15801561267557600080fd5b505af1158015612689573d6000803e3d6000fd5b505060cc80546001600160a01b03808b166001600160a01b03199283161790925560cf88905560ce805488841690831617905560d2805487841690831617905560d380549286169290911691909117905550506040516329965a1d60e01b8152731820a4b7618bde71dce8cdc73aab6c95905fad24906329965a1d906127379030907fb281fc8c12954d22544db45de3159a39272895b169a852b314f9cc762e44c53b908290600401615a91565b600060405180830381600087803b15801561275157600080fd5b505af1158015612765573d6000803e3d6000fd5b5050505050505050505050505050565b60008061278142613b3c565b60995490915060009061279a9063ffffffff1686615800565b6127a490836156ef565b90508181116127e95760405162461bcd60e51b81526020600482015260116024820152701512535154d510535417d2539590531251607a1b60448201526064016105fb565b6127f4876000613b5c565b506128028783838988613c44565b5060019695505050505050565b6001600160a01b0384166128705760405162461bcd60e51b815260206004820152602260248201527f4552433737373a206275726e2066726f6d20746865207a65726f206164647265604482015261737360f01b60648201526084016105fb565b600061287a611955565b905061288b81866000878787611e6f565b61289881866000876136a3565b6001600160a01b0385166000908152606660205260409020548481101561290d5760405162461bcd60e51b815260206004820152602360248201527f4552433737373a206275726e20616d6f756e7420657863656564732062616c616044820152626e636560e81b60648201526084016105fb565b6001600160a01b038616600090815260666020526040812086830390556067805487929061293c908490615972565b92505081905550856001600160a01b0316826001600160a01b03167fa78a9be3a7b862d26933ad85fb11d80ef66b8f972d7cbba06621d583943a409887878760405161298a93929190615a1b565b60405180910390a36040518581526000906001600160a01b03881690600080516020615d89833981519152906020015b60405180910390a3505050505050565b6001600160a01b038116600090815260986020526040812060609190819081906129f390613a23565b90506000816001600160401b03811115612a0f57612a0f614bb2565b604051908082528060200260200182016040528015612a4257816020015b6060815260200190600190039081612a2d5790505b50905060005b82811015612bf6576001600160a01b0387166000908152609860205260409020612a729082613a2d565b9450844211612be457612a854286615972565b6001600160a01b0388166000908152609860209081526040808320898452600201909152902054612ab69190615800565b604080516002808252606082018352929650919060208301908036833701905050828281518110612ae957612ae961595c565b602002602001018190525084828281518110612b0757612b0761595c565b6020026020010151600181518110612b2157612b2161595c565b6020908102919091018101919091526001600160a01b038816600090815260988252604080822088835260029081019093529020908101546001909101548510612b9e576001600160a01b0388166000908152609860209081526040808320898452600201909152902060010154612b999086615972565b612ba1565b60005b612bab91906156ef565b828281518110612bbd57612bbd61595c565b6020026020010151600081518110612bd757612bd761595c565b6020026020010181815250505b80612bee81615989565b915050612a48565b5095945050505050565b60cd5460d25460d3546040516305b8253160e01b81526000936001600160a01b03908116936305b8253193612c4b939183169216908d908d908d908d908d908d908d90600401615af8565b6020604051808303816000875af1158015612c6a573d6000803e3d6000fd5b505050506040513d601f19601f82011682018060405250810190612c8e91906159a4565b60d35460d2546040519293506001600160a01b03918216929116907fc88bd7cfbe8bae024ebb6f3cf291adfd7db2588a07e1c78768ea3c81b992496b90612cd6908590614d4c565b60405180910390a3979650505050505050565b60cd54604051635d7467e160e01b81526000916001600160a01b031690635d7467e190612d229089908990899089908990600401615b69565b6020604051808303816000875af1158015612d41573d6000803e3d6000fd5b505050506040513d601f19601f82011682018060405250810190612d6591906159a4565b9050856001600160a01b03167f53ea91d241feec51650b775b25cfc95a2377cbe9282bf2a38d7b34b21108939482604051612da09190614d4c565b60405180910390a295945050505050565b604080516101608101825260008082526020820181905291810182905260608181018390526080820183905260a0820183905260c0820183905260e082018390526101008201839052610120820183905261014082018390529182918651612e915760cd60009054906101000a90046001600160a01b03166001600160a01b0316634d2ace666040518163ffffffff1660e01b8152600401600060405180830381865afa158015612e66573d6000803e3d6000fd5b505050506040513d6000823e601f3d908101601f19168201604052612e8e9190810190615bb4565b96505b86516001600160401b03811115612eaa57612eaa614bb2565b604051908082528060200260200182016040528015612ed3578160200160208202803683370190505b50935086516001600160401b03811115612eef57612eef614bb2565b604051908082528060200260200182016040528015612f18578160200160208202803683370190505b5092506000915081886002886003811115612f3557612f35615c4d565b1480612f5257506003886003811115612f5057612f50615c4d565b145b15612fd55760d15460d054600090612f6a838b615972565b612f749190615972565b9050620186a0612f848385615800565b612f8e9190615800565b60cf54909350620186a090612fa39083615800565b612fad9190615835565b612fb790836156ef565b612fc19084615835565b9250612fd0620186a084615835565b925050505b60005b895181101561338057600060d460008c8481518110612ff957612ff961595c565b60200260200101516001600160a01b03166001600160a01b0316815260200190815260200160002054111561336e57600089600381111561303c5761303c615c4d565b14806130595750600189600381111561305757613057615c4d565b145b1561316e5760d460008b83815181106130745761307461595c565b60200260200101516001600160a01b03166001600160a01b031681526020019081526020016000205482116130a95781613167565b6001600160a01b038c16600090815260d560205260408120548b51909160d4918d90859081106130db576130db61595c565b60200260200101516001600160a01b03166001600160a01b03168152602001908152602001600020541161314d5760d460008b838151811061311f5761311f61595c565b60200260200101516001600160a01b03166001600160a01b0316815260200190815260200160002054613167565b6001600160a01b038c16600090815260d560205260409020545b9250613232565b600289600381111561318257613182615c4d565b148061319f5750600389600381111561319d5761319d615c4d565b145b156132325760d460008b83815181106131ba576131ba61595c565b60200260200101516001600160a01b03166001600160a01b031681526020019081526020016000205482116131ef578161322f565b60d460008b83815181106132055761320561595c565b60200260200101516001600160a01b03166001600160a01b03168152602001908152602001600020545b92505b821561336e5789818151811061324a5761324a61595c565b60200260200101518786815181106132645761326461595c565b6001600160a01b03928316602091820292909201015260cd548b51911690637ca25001908c908490811061329a5761329a61595c565b60200260200101516040518263ffffffff1660e01b81526004016132be9190614d4c565b61016060405180830381865afa1580156132dc573d6000803e3d6000fd5b505050506040513d601f19601f8201168201806040525081019061330091906155ff565b93508360c00151600a61331391906157eb565b60e085015161332390600a6157eb565b61332d9085615800565b6133379190615835565b8686815181106133495761334961595c565b602090810291909101015261335f6001866156ef565b945061336b8383615972565b91505b8061337881615989565b915050612fd8565b5080156133c55760405162461bcd60e51b81526020600482015260136024820152721a5b9cdd59999a58da595b9d08185b5bdd5b9d606a1b60448201526064016105fb565b505050955095509592505050565b6133db611955565b6001600160a01b03166133ec610d07565b6001600160a01b0316146134125760405162461bcd60e51b81526004016105fb9061552b565b6001600160a01b0381166134775760405162461bcd60e51b815260206004820152602660248201527f4f776e61626c653a206e6577206f776e657220697320746865207a65726f206160448201526564647265737360d01b60648201526084016105fb565b61178681612426565b3360143610801590613496575061349681612316565b156134a6575060131936013560601c5b90565b60006134b460675490565b90506001600160a01b038316301461351a57816134d184306115f6565b101561351a5760405162461bcd60e51b8152602060048201526018602482015277416d6f756e74206578636565647320616c6c6f77616e636560401b60448201526064016105fb565b6108388383604051806020016040528060008152506040518060200160405280600081525061280f565b600282600381111561355857613558615c4d565b14806135755750600082600381111561357357613573615c4d565b145b156135f6576040516301e9a69560e41b81526001600160a01b03851690631e9a6950906135a890889087906004016153a1565b600060405180830381600087803b1580156135c257600080fd5b505af19250505080156135d3575060015b6135f1578060405162461bcd60e51b81526004016105fb9190614b9f565b610abc565b600182600381111561360a5761360a615c4d565b14806136275750600382600381111561362557613625615c4d565b145b15610abc576040516382341e8f60e01b81526001600160a01b038516906382341e8f9061365a90889087906004016153a1565b600060405180830381600087803b15801561367457600080fd5b505af1925050508015613685575060015b610abc578060405162461bcd60e51b81526004016105fb9190614b9f565b6001600160a01b038316156138df576001600160a01b038316301480156136d157506001600160a01b038216155b156136db57611929565b60cc546001600160a01b0316156137b85760cc5460405163950676d960e01b81526001600160a01b03868116600483015285811660248301528481166044830152606482018490529091169063950676d9906084016020604051808303816000875af115801561374f573d6000803e3d6000fd5b505050506040513d601f19601f820116820180604052508101906137739190615c63565b6137b85760405162461bcd60e51b81526020600482015260166024820152751213d3d2ce881514905394d1915497d414915591539560521b60448201526064016105fb565b60006137c384610b80565b90508181106138dd5760006137d88383615972565b90506001600160a01b03841615806137f857506001600160a01b03841630145b15613802576138db565b600061380d86612478565b905060008111801561381f5750838110155b156138305761383086600086613d4b565b6001600160a01b038616600090815260d5602052604090205482116138d9576001600160a01b038616600090815260d56020526040812054613873908490615972565b6001600160a01b038816600090815260d560205260408120805492935083929091906138a0908490615972565b925050819055508060d060008282546138b99190615972565b925050819055508060d160008282546138d291906156ef565b9091555050505b505b505b505b611929565b6001600160a01b03851661393a5760405162461bcd60e51b815260206004820181905260248201527f4552433737373a206d696e7420746f20746865207a65726f206164647265737360448201526064016105fb565b6000613944611955565b905061395381600088886136a3565b846067600082825461396591906156ef565b90915550506001600160a01b038616600090815260666020526040812080548792906139929084906156ef565b909155506139a890508160008888888888612163565b856001600160a01b0316816001600160a01b03167f2fe5be0146f74c5bce36c0b80911af6c7d86ff27e89d5cfa61fc681327954e5d8787876040516139ef93929190615a1b565b60405180910390a36040518581526001600160a01b03871690600090600080516020615d89833981519152906020016129ba565b6000610838825490565b60006114dd83836140a5565b600054610100900460ff16613a605760405162461bcd60e51b81526004016105fb90615a46565b613a686140cf565b606580546001600160a01b0319169055565b600054610100900460ff16613aa15760405162461bcd60e51b81526004016105fb90615a46565b610eb38383836140fe565b600054610100900460ff16613ad35760405162461bcd60e51b81526004016105fb90615a46565b63ffffffff8116613af3576099805463ffffffff19166201518017905550565b6099805463ffffffff831663ffffffff1990911617905550565b600054610100900460ff16613b345760405162461bcd60e51b81526004016105fb90615a46565b610be46142e0565b60995460009063ffffffff16613b528184615835565b6108389190615800565b6001600160a01b038216600090815260986020526040812081908190613b8190613a23565b9050801561096857805b8015613c3857613bbd613b9f600183615972565b6001600160a01b038816600090815260986020526040902090613a2d565b925060018515151480613bd7575082613bd542613b3c565b115b15613c26576001600160a01b03861660008181526098602081815260408084208885526002808201845291852085815560018101869055909101849055939092529052613c24908461430e565b505b80613c3081615c7e565b915050613b8b565b50506001949350505050565b6001600160a01b0385166000908152609860205260409020613c66908461431a565b5060018115151415613ce357613c7c8484615972565b613c869083615835565b6001600160a01b0386166000908152609860209081526040808320878452600201909152902054613cb791906156ef565b6001600160a01b0386166000908152609860209081526040808320878452600201909152902055610abc565b6001600160a01b038516600090815260986020908152604080832086845260029081019092529091200154613d199083906156ef565b6001600160a01b0386166000908152609860209081526040808320878452600290810190925290912001555050505050565b6001600160a01b0383166000908152609860205260408120613d6c90613a23565b905060608115610abc57816001600160401b03811115613d8e57613d8e614bb2565b604051908082528060200260200182016040528015613db7578160200160208202803683370190505b50905060005b82811015613e16576001600160a01b0386166000908152609860205260409020613de79082613a2d565b828281518110613df957613df961595c565b602090810291909101015280613e0e81615989565b915050613dbd565b50613e2081614326565b905060008060005b8481101561068457838181518110613e4257613e4261595c565b602002602001015142116140935760986000896001600160a01b03166001600160a01b031681526020019081526020016000206002016000858381518110613e8c57613e8c61595c565b60200260200101518152602001908152602001600020600201548610613f175760986000896001600160a01b03166001600160a01b031681526020019081526020016000206002016000858381518110613ee857613ee861595c565b602002602001015181526020019081526020016000206002015492508286613f109190615972565b9550613f1d565b60009592505b613f4388858381518110613f3357613f3361595c565b6020026020010151856000614345565b6001600160a01b03871615613f7957613f798742868481518110613f6957613f6961595c565b6020026020010151866000613c44565b85613f8357610684565b42848281518110613f9657613f9661595c565b6020026020010151613fa89190615972565b609860008a6001600160a01b03166001600160a01b031681526020019081526020016000206002016000868481518110613fe457613fe461595c565b60200260200101518152602001908152602001600020600001546140089190615800565b91508186106140275781925081866140209190615972565b955061402d565b60009592505b614053888583815181106140435761404361595c565b6020026020010151856001614345565b6001600160a01b038716156140895761408987428684815181106140795761407961595c565b6020026020010151866001613c44565b8561409357610684565b8061409d81615989565b915050613e28565b60008260000182815481106140bc576140bc61595c565b9060005260206000200154905092915050565b600054610100900460ff166140f65760405162461bcd60e51b81526004016105fb90615a46565b610be46145f9565b600054610100900460ff166141255760405162461bcd60e51b81526004016105fb90615a46565b82516141389060689060208601906148eb565b50815161414c9060699060208501906148eb565b50805161416090606a90602084019061496b565b5060005b81518110156141c9576001606b60008484815181106141855761418561595c565b6020908102919091018101516001600160a01b03168252810191909152604001600020805460ff1916911515919091179055806141c181615989565b915050614164565b506040516329965a1d60e01b8152731820a4b7618bde71dce8cdc73aab6c95905fad24906329965a1d906142259030907fac7fbab5f54a3ca8194167523c6753bfeb96a445279294b6125b68cce2177054908290600401615a91565b600060405180830381600087803b15801561423f57600080fd5b505af1158015614253573d6000803e3d6000fd5b50506040516329965a1d60e01b8152731820a4b7618bde71dce8cdc73aab6c95905fad2492506329965a1d91506142b29030907faea199e31a596269b42cdafd93407f14436db6e4cad65417994c2eb37381e05a908290600401615a91565b600060405180830381600087803b1580156142cc57600080fd5b505af1158015611f86573d6000803e3d6000fd5b600054610100900460ff166143075760405162461bcd60e51b81526004016105fb90615a46565b6001609a55565b60006114dd8383614630565b60006114dd8383614723565b60606143418260006001855161433c9190615972565b614772565b5090565b6001600160a01b038416600090815260986020526040902061437a9084600081815260018301602052604081205415156114dd565b151560011415611929576001811515141561448d576001600160a01b03841660009081526098602090815260408083208684526002019091529020600101546143c49083906156ef565b6001600160a01b03851660009081526098602090815260408083208784526002019091528120600101919091556143fb4285615972565b6001600160a01b038616600090815260986020908152604080832088845260020190915290205461442c9190615800565b6001600160a01b03861660009081526098602090815260408083208884526002019091529020600101549091508111614487576001600160a01b03851660009081526098602090815260408083208784526002019091528120555b50614550565b6001600160a01b038416600090815260986020908152604080832086845260029081019092529091200154821015614525576001600160a01b0384166000908152609860209081526040808320868452600290810190925290912001546144f5908390615972565b6001600160a01b038516600090815260986020908152604080832087845260029081019092529091200155614550565b6001600160a01b03841660009081526098602090815260408083208684526002908101909252822001555b6001600160a01b03841660009081526098602090815260408083208684526002019091529020541580156145ac57506001600160a01b038416600090815260986020908152604080832086845260029081019092529091200154155b15611929576001600160a01b03841660008181526098602081815260408084208885526002808201845291852085815560018101869055909101849055939092529052610abc908461430e565b600054610100900460ff166146205760405162461bcd60e51b81526004016105fb90615a46565b610be461462b611955565b612426565b60008181526001830160205260408120548015614719576000614654600183615972565b855490915060009061466890600190615972565b90508181146146cd5760008660000182815481106146885761468861595c565b90600052602060002001549050808760000184815481106146ab576146ab61595c565b6000918252602080832090910192909255918252600188019052604090208390555b85548690806146de576146de615c95565b600190038181906000526020600020016000905590558560010160008681526020019081526020016000206000905560019350505050610838565b6000915050610838565b600081815260018301602052604081205461476a57508154600181810184556000848152602080822090930184905584548482528286019093526040902091909155610838565b506000610838565b818180821415614783575050505050565b60008560026147928787615cab565b61479c9190615cea565b6147a69087615d18565b815181106147b6576147b661595c565b602002602001015190505b8183136148c5575b808684815181106147dc576147dc61595c565b602002602001015110156147fc57826147f481615d59565b9350506147c9565b85828151811061480e5761480e61595c565b602002602001015181101561482f578161482781615d72565b9250506147fc565b8183136148c0578582815181106148485761484861595c565b60200260200101518684815181106148625761486261595c565b602002602001015187858151811061487c5761487c61595c565b602002602001018885815181106148955761489561595c565b602090810291909101019190915252826148ae81615d59565b93505081806148bc90615d72565b9250505b6147c1565b818512156148d8576148d8868684614772565b83831215610a6d57610a6d868486614772565b8280546148f7906154ac565b90600052602060002090601f016020900481019282614919576000855561495f565b82601f1061493257805160ff191683800117855561495f565b8280016001018555821561495f579182015b8281111561495f578251825591602001919060010190614944565b506143419291506149c0565b82805482825590600052602060002090810192821561495f579160200282015b8281111561495f57825182546001600160a01b0319166001600160a01b0390911617825560209092019160019091019061498b565b5b8082111561434157600081556001016149c1565b6001600160a01b038116811461178657600080fd5b60008083601f8401126149fc57600080fd5b5081356001600160401b03811115614a1357600080fd5b602083019150836020828501011115614a2b57600080fd5b9250929050565b60008060008060008060008060c0898b031215614a4e57600080fd5b8835614a59816149d5565b97506020890135614a69816149d5565b96506040890135614a79816149d5565b95506060890135945060808901356001600160401b0380821115614a9c57600080fd5b614aa88c838d016149ea565b909650945060a08b0135915080821115614ac157600080fd5b50614ace8b828c016149ea565b999c989b5096995094979396929594505050565b600060208284031215614af457600080fd5b5035919050565b600081518084526020808501945080840160005b83811015614b345781516001600160a01b031687529582019590820190600101614b0f565b509495945050505050565b6020815260006114dd6020830184614afb565b6000815180845260005b81811015614b7857602081850181015186830182015201614b5c565b81811115614b8a576000602083870101525b50601f01601f19169290920160200192915050565b6020815260006114dd6020830184614b52565b634e487b7160e01b600052604160045260246000fd5b604080519081016001600160401b0381118282101715614bea57614bea614bb2565b60405290565b60405161016081016001600160401b0381118282101715614bea57614bea614bb2565b604051601f8201601f191681016001600160401b0381118282101715614c3b57614c3b614bb2565b604052919050565b60006001600160401b03821115614c5c57614c5c614bb2565b5060051b60200190565b600082601f830112614c7757600080fd5b81356020614c8c614c8783614c43565b614c13565b82815260059290921b84018101918181019086841115614cab57600080fd5b8286015b84811015614ccf578035614cc2816149d5565b8352918301918301614caf565b509695505050505050565b60008060408385031215614ced57600080fd5b8235915060208301356001600160401b03811115614d0a57600080fd5b614d1685828601614c66565b9150509250929050565b60008060408385031215614d3357600080fd5b8235614d3e816149d5565b946020939093013593505050565b6001600160a01b0391909116815260200190565b600080600060608486031215614d7557600080fd5b8335614d80816149d5565b92506020840135614d90816149d5565b929592945050506040919091013590565b60008060408385031215614db457600080fd5b823591506020830135614dc6816149d5565b809150509250929050565b600060208284031215614de357600080fd5b81356114dd816149d5565b600082601f830112614dff57600080fd5b81356001600160401b03811115614e1857614e18614bb2565b614e2b601f8201601f1916602001614c13565b818152846020838601011115614e4057600080fd5b816020850160208301376000918101602001919091529392505050565b600080600080600060a08688031215614e7557600080fd5b8535614e80816149d5565b94506020860135614e90816149d5565b93506040860135925060608601356001600160401b0380821115614eb357600080fd5b614ebf89838a01614dee565b93506080880135915080821115614ed557600080fd5b50614ee288828901614dee565b9150509295509295909350565b600080600080600080600080610100898b031215614f0c57600080fd5b8835614f17816149d5565b97506020890135614f27816149d5565b96506040890135614f37816149d5565b95506060890135614f47816149d5565b94506080890135935060a0890135614f5e816149d5565b925060c0890135614f6e816149d5565b915060e0890135614f7e816149d5565b809150509295985092959890939650565b600080600060608486031215614fa457600080fd5b8335614faf816149d5565b92506020840135915060408401356001600160401b03811115614fd157600080fd5b614fdd86828701614dee565b9150509250925092565b600080600060608486031215614ffc57600080fd5b8335615007816149d5565b95602085013595506040909401359392505050565b600081518084526020808501945080840160005b83811015614b3457815187529582019590820190600101615030565b6000602080830181845280855180835260408601915060408160051b870101925083870160005b828110156150a157603f1988860301845261508f85835161501c565b94509285019290850190600101615073565b5092979650505050505050565b6001600160401b038116811461178657600080fd5b600082601f8301126150d457600080fd5b813560206150e4614c8783614c43565b82815260069290921b8401810191818101908684111561510357600080fd5b8286015b84811015614ccf57604081890312156151205760008081fd5b615128614bc8565b8135615133816149d5565b81528185013585820152835291830191604001615107565b600080600080600080600060e0888a03121561516657600080fd5b8735615171816150ae565b965060208801356001600160401b0381111561518c57600080fd5b6151988a828b016150c3565b96505060408801356151a9816150ae565b945060608801356151b9816150ae565b935060808801356151c9816150ae565b925060a08801356151d9816150ae565b915060c08801356151e9816150ae565b8091505092959891949750929550565b600080600080600060a0868803121561521157600080fd5b853561521c816149d5565b9450602086013561522c816150ae565b935060408601356001600160401b0381111561524757600080fd5b615253888289016150c3565b9350506060860135615264816150ae565b91506080860135615274816150ae565b809150509295509295909350565b6000806040838503121561529557600080fd5b82356152a0816149d5565b91506020830135614dc6816149d5565b600080600080608085870312156152c657600080fd5b84356152d1816149d5565b9350602085810135935060408601356001600160401b03808211156152f557600080fd5b61530189838a01614c66565b9450606088013591508082111561531757600080fd5b818801915088601f83011261532b57600080fd5b8135615339614c8782614c43565b81815260059190911b8301840190848101908b83111561535857600080fd5b8585015b83811015615390578035858111156153745760008081fd5b6153828e89838a0101614c66565b84525091860191860161535c565b50989b979a50959850505050505050565b6001600160a01b03929092168252602082015260400190565b600080600080608085870312156153d057600080fd5b84356153db816149d5565b93506020850135925060408501356001600160401b03808211156153fe57600080fd5b61540a88838901614dee565b9350606087013591508082111561542057600080fd5b5061542d87828801614dee565b91505092959194509250565b6000806040838503121561544c57600080fd5b8235915060208301356001600160401b0381111561546957600080fd5b614d1685828601614dee565b6020808252601f908201527f5265656e7472616e637947756172643a207265656e7472616e742063616c6c00604082015260600190565b600181811c908216806154c057607f821691505b602082108114156154e157634e487b7160e01b600052602260045260246000fd5b50919050565b60208082526024908201527f4552433737373a207472616e7366657220746f20746865207a65726f206164646040820152637265737360e01b606082015260800190565b6020808252818101527f4f776e61626c653a2063616c6c6572206973206e6f7420746865206f776e6572604082015260600190565b9182526001600160a01b0316602082015260400190565b6020808252602c908201527f4552433737373a2063616c6c6572206973206e6f7420616e206f70657261746f60408201526b39103337b9103437b63232b960a11b606082015260800190565b80516155ce816149d5565b919050565b80516155ce816150ae565b805180151581146155ce57600080fd5b805160ff811681146155ce57600080fd5b6000610160828403121561561257600080fd5b61561a614bf0565b615623836155c3565b8152615631602084016155d3565b6020820152615642604084016155c3565b6040820152615653606084016155d3565b6060820152615664608084016155d3565b608082015261567560a084016155d3565b60a082015261568660c084016155d3565b60c082015261569760e084016155d3565b60e08201526101006156aa8185016155de565b908201526101206156bc8482016155ee565b908201526101406156ce8482016155c3565b908201529392505050565b634e487b7160e01b600052601160045260246000fd5b60008219821115615702576157026156d9565b500190565b600181815b80851115615742578160001904821115615728576157286156d9565b8085161561573557918102915b93841c939080029061570c565b509250929050565b60008261575957506001610838565b8161576657506000610838565b816001811461577c5760028114615786576157a2565b6001915050610838565b60ff841115615797576157976156d9565b50506001821b610838565b5060208310610133831016604e8410600b84101617156157c5575081810a610838565b6157cf8383615707565b80600019048211156157e3576157e36156d9565b029392505050565b60006114dd6001600160401b0384168361574a565b600081600019048311821515161561581a5761581a6156d9565b500290565b634e487b7160e01b600052601260045260246000fd5b6000826158445761584461581f565b500490565b60608152600061585c6060830186614afb565b60208382038185015261586f828761501c565b915083820360408501528185518084528284019150828160051b8501018388016000805b848110156158ef57878403601f19018652825180518086529088019088860190845b818110156158da5783516001600160a01b03168352928a0192918a01916001016158b5565b50509688019694505091860191600101615893565b50919b9a5050505050505050505050565b6000806040838503121561591357600080fd5b825161591e816149d5565b6020939093015192949293505050565b602080825260149082015273494e53554646494349454e545f42414c414e434560601b604082015260600190565b634e487b7160e01b600052603260045260246000fd5b600082821015615984576159846156d9565b500390565b600060001982141561599d5761599d6156d9565b5060010190565b6000602082840312156159b657600080fd5b81516114dd816149d5565b6001600160a01b0387811682528681166020830152851660408201526060810184905260c0608082018190526000906159fc90830185614b52565b82810360a0840152615a0e8185614b52565b9998505050505050505050565b838152606060208201526000615a346060830185614b52565b82810360408401526113c78185614b52565b6020808252602b908201527f496e697469616c697a61626c653a20636f6e7472616374206973206e6f74206960408201526a6e697469616c697a696e6760a81b606082015260800190565b6001600160a01b0393841681526020810192909252909116604082015260600190565b600081518084526020808501945080840160005b83811015614b3457815180516001600160a01b031688528301518388015260409096019590820190600101615ac8565b6001600160a01b038a81168252891660208201526001600160401b03888116604083015261012060608301819052600091615b358483018b615ab4565b988116608085015296871660a0840152505092841660c084015290831660e083015290911661010090910152949350505050565b60018060a01b038616815260006001600160401b03808716602084015260a06040840152615b9a60a0840187615ab4565b948116606084015292909216608090910152509392505050565b60006020808385031215615bc757600080fd5b82516001600160401b03811115615bdd57600080fd5b8301601f81018513615bee57600080fd5b8051615bfc614c8782614c43565b81815260059190911b82018301908381019087831115615c1b57600080fd5b928401925b82841015615c42578351615c33816149d5565b82529284019290840190615c20565b979650505050505050565b634e487b7160e01b600052602160045260246000fd5b600060208284031215615c7557600080fd5b6114dd826155de565b600081615c8d57615c8d6156d9565b506000190190565b634e487b7160e01b600052603160045260246000fd5b60008083128015600160ff1b850184121615615cc957615cc96156d9565b6001600160ff1b0384018313811615615ce457615ce46156d9565b50500390565b600082615cf957615cf961581f565b600160ff1b821460001984141615615d1357615d136156d9565b500590565b600080821280156001600160ff1b0384900385131615615d3a57615d3a6156d9565b600160ff1b8390038412811615615d5357615d536156d9565b50500190565b60006001600160ff1b0382141561599d5761599d6156d9565b6000600160ff1b821415615c8d57615c8d6156d956feddf252ad1be2c89b69c2b068fc378daa952ba7f163c4a11628f55a4df523b3efa164736f6c634300080b000a",
  "linkReferences": {},
  "deployedLinkReferences": {}
}