{
  "_format": "hh-sol-artifact-1",
  "contractName": "CommunityCoin",
  "sourceName": "contracts/CommunityCoin.sol",
  "abi": [
    {
      "anonymous": false,
      "inputs": [
        {
          "indexed": true,
          "internalType": "address",
          "name": "owner",
          "type": "address"
        },
        {
          "indexed": true,
          "internalType": "address",
          "name": "spender",
          "type": "address"
        },
        {
          "indexed": false,
          "internalType": "uint256",
          "name": "value",
          "type": "uint256"
        }
      ],
      "name": "Approval",
      "type": "event"
    },
    {
      "anonymous": false,
      "inputs": [
        {
          "indexed": true,
          "internalType": "address",
          "name": "operator",
          "type": "address"
        },
        {
          "indexed": true,
          "internalType": "address",
          "name": "tokenHolder",
          "type": "address"
        }
      ],
      "name": "AuthorizedOperator",
      "type": "event"
    },
    {
      "anonymous": false,
      "inputs": [
        {
          "indexed": true,
          "internalType": "address",
          "name": "operator",
          "type": "address"
        },
        {
          "indexed": true,
          "internalType": "address",
          "name": "from",
          "type": "address"
        },
        {
          "indexed": false,
          "internalType": "uint256",
          "name": "amount",
          "type": "uint256"
        },
        {
          "indexed": false,
          "internalType": "bytes",
          "name": "data",
          "type": "bytes"
        },
        {
          "indexed": false,
          "internalType": "bytes",
          "name": "operatorData",
          "type": "bytes"
        }
      ],
      "name": "Burned",
      "type": "event"
    },
    {
      "anonymous": false,
      "inputs": [
        {
          "indexed": true,
          "internalType": "address",
          "name": "tokenA",
          "type": "address"
        },
        {
          "indexed": true,
          "internalType": "address",
          "name": "tokenB",
          "type": "address"
        },
        {
          "indexed": false,
          "internalType": "address",
          "name": "instance",
          "type": "address"
        }
      ],
      "name": "InstanceCreated",
      "type": "event"
    },
    {
      "anonymous": false,
      "inputs": [
        {
          "indexed": true,
          "internalType": "address",
          "name": "erc20token",
          "type": "address"
        },
        {
          "indexed": false,
          "internalType": "address",
          "name": "instance",
          "type": "address"
        }
      ],
      "name": "InstanceErc20Created",
      "type": "event"
    },
    {
      "anonymous": false,
      "inputs": [
        {
          "indexed": true,
          "internalType": "address",
          "name": "operator",
          "type": "address"
        },
        {
          "indexed": true,
          "internalType": "address",
          "name": "to",
          "type": "address"
        },
        {
          "indexed": false,
          "internalType": "uint256",
          "name": "amount",
          "type": "uint256"
        },
        {
          "indexed": false,
          "internalType": "bytes",
          "name": "data",
          "type": "bytes"
        },
        {
          "indexed": false,
          "internalType": "bytes",
          "name": "operatorData",
          "type": "bytes"
        }
      ],
      "name": "Minted",
      "type": "event"
    },
    {
      "anonymous": false,
      "inputs": [
        {
          "indexed": true,
          "internalType": "address",
          "name": "previousOwner",
          "type": "address"
        },
        {
          "indexed": true,
          "internalType": "address",
          "name": "newOwner",
          "type": "address"
        }
      ],
      "name": "OwnershipTransferred",
      "type": "event"
    },
    {
      "anonymous": false,
      "inputs": [
        {
          "indexed": true,
          "internalType": "address",
          "name": "operator",
          "type": "address"
        },
        {
          "indexed": true,
          "internalType": "address",
          "name": "tokenHolder",
          "type": "address"
        }
      ],
      "name": "RevokedOperator",
      "type": "event"
    },
    {
      "anonymous": false,
      "inputs": [
        {
          "indexed": true,
          "internalType": "address",
          "name": "token",
          "type": "address"
        },
        {
          "indexed": true,
          "internalType": "address",
          "name": "account",
          "type": "address"
        },
        {
          "indexed": false,
          "internalType": "uint256",
          "name": "amount",
          "type": "uint256"
        }
      ],
      "name": "RewardGranted",
      "type": "event"
    },
    {
      "anonymous": false,
      "inputs": [
        {
          "indexed": true,
          "internalType": "address",
          "name": "operator",
          "type": "address"
        },
        {
          "indexed": true,
          "internalType": "address",
          "name": "from",
          "type": "address"
        },
        {
          "indexed": true,
          "internalType": "address",
          "name": "to",
          "type": "address"
        },
        {
          "indexed": false,
          "internalType": "uint256",
          "name": "amount",
          "type": "uint256"
        },
        {
          "indexed": false,
          "internalType": "bytes",
          "name": "data",
          "type": "bytes"
        },
        {
          "indexed": false,
          "internalType": "bytes",
          "name": "operatorData",
          "type": "bytes"
        }
      ],
      "name": "Sent",
      "type": "event"
    },
    {
      "anonymous": false,
      "inputs": [
        {
          "indexed": true,
          "internalType": "address",
          "name": "account",
          "type": "address"
        },
        {
          "indexed": false,
          "internalType": "uint256",
          "name": "amount",
          "type": "uint256"
        },
        {
          "indexed": false,
          "internalType": "uint256",
          "name": "priceBeforeStake",
          "type": "uint256"
        }
      ],
      "name": "Staked",
      "type": "event"
    },
    {
      "anonymous": false,
      "inputs": [
        {
          "indexed": true,
          "internalType": "address",
          "name": "from",
          "type": "address"
        },
        {
          "indexed": true,
          "internalType": "address",
          "name": "to",
          "type": "address"
        },
        {
          "indexed": false,
          "internalType": "uint256",
          "name": "value",
          "type": "uint256"
        }
      ],
      "name": "Transfer",
      "type": "event"
    },
    {
      "inputs": [
        {
          "internalType": "uint256",
          "name": "amount",
          "type": "uint256"
        }
      ],
      "name": "addToCirculation",
      "outputs": [],
      "stateMutability": "nonpayable",
      "type": "function"
    },
    {
      "inputs": [
        {
          "internalType": "address",
          "name": "holder",
          "type": "address"
        },
        {
          "internalType": "address",
          "name": "spender",
          "type": "address"
        }
      ],
      "name": "allowance",
      "outputs": [
        {
          "internalType": "uint256",
          "name": "",
          "type": "uint256"
        }
      ],
      "stateMutability": "view",
      "type": "function"
    },
    {
      "inputs": [
        {
          "internalType": "address",
          "name": "spender",
          "type": "address"
        },
        {
          "internalType": "uint256",
          "name": "value",
          "type": "uint256"
        }
      ],
      "name": "approve",
      "outputs": [
        {
          "internalType": "bool",
          "name": "",
          "type": "bool"
        }
      ],
      "stateMutability": "nonpayable",
      "type": "function"
    },
    {
      "inputs": [
        {
          "internalType": "address",
          "name": "operator",
          "type": "address"
        }
      ],
      "name": "authorizeOperator",
      "outputs": [],
      "stateMutability": "nonpayable",
      "type": "function"
    },
    {
      "inputs": [
        {
          "internalType": "address",
          "name": "tokenHolder",
          "type": "address"
        }
      ],
      "name": "balanceOf",
      "outputs": [
        {
          "internalType": "uint256",
          "name": "",
          "type": "uint256"
        }
      ],
      "stateMutability": "view",
      "type": "function"
    },
    {
      "inputs": [
        {
          "internalType": "uint256",
          "name": "amount",
          "type": "uint256"
        },
        {
          "internalType": "bytes",
          "name": "data",
          "type": "bytes"
        }
      ],
      "name": "burn",
      "outputs": [],
      "stateMutability": "nonpayable",
      "type": "function"
    },
    {
      "inputs": [],
      "name": "decimals",
      "outputs": [
        {
          "internalType": "uint8",
          "name": "",
          "type": "uint8"
        }
      ],
      "stateMutability": "pure",
      "type": "function"
    },
    {
      "inputs": [],
      "name": "defaultOperators",
      "outputs": [
        {
          "internalType": "address[]",
          "name": "",
          "type": "address[]"
        }
      ],
      "stateMutability": "view",
      "type": "function"
    },
    {
      "inputs": [
        {
          "internalType": "bytes32",
          "name": "role",
          "type": "bytes32"
        },
        {
          "internalType": "address",
          "name": "account",
          "type": "address"
        }
      ],
      "name": "grantRole",
      "outputs": [],
      "stateMutability": "nonpayable",
      "type": "function"
    },
    {
      "inputs": [],
      "name": "granularity",
      "outputs": [
        {
          "internalType": "uint256",
          "name": "",
          "type": "uint256"
        }
      ],
      "stateMutability": "view",
      "type": "function"
    },
    {
      "inputs": [],
      "name": "hook",
      "outputs": [
        {
          "internalType": "contract IHook",
          "name": "",
          "type": "address"
        }
      ],
      "stateMutability": "view",
      "type": "function"
    },
    {
      "inputs": [
        {
          "internalType": "address",
          "name": "impl",
          "type": "address"
        },
        {
          "internalType": "address",
          "name": "implErc20",
          "type": "address"
        },
        {
          "internalType": "address",
          "name": "hook_",
          "type": "address"
        },
        {
          "internalType": "address",
          "name": "communityCoinInstanceAddr",
          "type": "address"
        },
        {
          "internalType": "uint256",
          "name": "discountSensitivity_",
          "type": "uint256"
        },
        {
          "internalType": "address",
          "name": "rolesManagementAddr_",
          "type": "address"
        },
        {
          "internalType": "address",
          "name": "reserveToken_",
          "type": "address"
        },
        {
          "internalType": "address",
          "name": "tradedToken_",
          "type": "address"
        }
      ],
      "name": "initialize",
      "outputs": [],
      "stateMutability": "nonpayable",
      "type": "function"
    },
    {
      "inputs": [],
      "name": "instanceManagment",
      "outputs": [
        {
          "internalType": "contract ICommunityStakingPoolFactory",
          "name": "",
          "type": "address"
        }
      ],
      "stateMutability": "view",
      "type": "function"
    },
    {
      "inputs": [
        {
          "internalType": "address",
          "name": "operator",
          "type": "address"
        },
        {
          "internalType": "address",
          "name": "tokenHolder",
          "type": "address"
        }
      ],
      "name": "isOperatorFor",
      "outputs": [
        {
          "internalType": "bool",
          "name": "",
          "type": "bool"
        }
      ],
      "stateMutability": "view",
      "type": "function"
    },
    {
      "inputs": [
        {
          "internalType": "address",
          "name": "forwarder",
          "type": "address"
        }
      ],
      "name": "isTrustedForwarder",
      "outputs": [
        {
          "internalType": "bool",
          "name": "",
          "type": "bool"
        }
      ],
      "stateMutability": "view",
      "type": "function"
    },
    {
      "inputs": [
        {
          "internalType": "address",
          "name": "account",
          "type": "address"
        },
        {
          "internalType": "uint256",
          "name": "amount",
          "type": "uint256"
        },
        {
          "internalType": "uint256",
          "name": "priceBeforeStake",
          "type": "uint256"
        }
      ],
      "name": "issueWalletTokens",
      "outputs": [],
      "stateMutability": "nonpayable",
      "type": "function"
    },
    {
      "inputs": [],
      "name": "name",
      "outputs": [
        {
          "internalType": "string",
          "name": "",
          "type": "string"
        }
      ],
      "stateMutability": "view",
      "type": "function"
    },
    {
      "inputs": [
        {
          "internalType": "address",
          "name": "account",
          "type": "address"
        },
        {
          "internalType": "uint256",
          "name": "amount",
          "type": "uint256"
        },
        {
          "internalType": "bytes",
          "name": "data",
          "type": "bytes"
        },
        {
          "internalType": "bytes",
          "name": "operatorData",
          "type": "bytes"
        }
      ],
      "name": "operatorBurn",
      "outputs": [],
      "stateMutability": "nonpayable",
      "type": "function"
    },
    {
      "inputs": [
        {
          "internalType": "address",
          "name": "sender",
          "type": "address"
        },
        {
          "internalType": "address",
          "name": "recipient",
          "type": "address"
        },
        {
          "internalType": "uint256",
          "name": "amount",
          "type": "uint256"
        },
        {
          "internalType": "bytes",
          "name": "data",
          "type": "bytes"
        },
        {
          "internalType": "bytes",
          "name": "operatorData",
          "type": "bytes"
        }
      ],
      "name": "operatorSend",
      "outputs": [],
      "stateMutability": "nonpayable",
      "type": "function"
    },
    {
      "inputs": [],
      "name": "owner",
      "outputs": [
        {
          "internalType": "address",
          "name": "",
          "type": "address"
        }
      ],
      "stateMutability": "view",
      "type": "function"
    },
    {
      "inputs": [
        {
          "internalType": "address",
          "name": "tokenErc20",
          "type": "address"
        },
        {
          "internalType": "uint64",
          "name": "duration",
          "type": "uint64"
        },
        {
          "internalType": "uint64",
          "name": "bonusTokenFraction",
          "type": "uint64"
        },
        {
          "components": [
            {
              "internalType": "address",
              "name": "account",
              "type": "address"
            },
            {
              "internalType": "uint256",
              "name": "amount",
              "type": "uint256"
            }
          ],
          "internalType": "struct IStructs.StructAddrUint256[]",
          "name": "donations",
          "type": "tuple[]"
        },
        {
          "internalType": "uint64",
          "name": "numerator",
          "type": "uint64"
        },
        {
          "internalType": "uint64",
          "name": "denominator",
          "type": "uint64"
        }
      ],
      "name": "produce",
      "outputs": [
        {
          "internalType": "address",
          "name": "instance",
          "type": "address"
        }
      ],
      "stateMutability": "nonpayable",
      "type": "function"
    },
    {
      "inputs": [
        {
          "internalType": "uint64",
          "name": "duration",
          "type": "uint64"
        },
        {
          "internalType": "uint64",
          "name": "bonusTokenFraction",
          "type": "uint64"
        },
        {
          "components": [
            {
              "internalType": "address",
              "name": "account",
              "type": "address"
            },
            {
              "internalType": "uint256",
              "name": "amount",
              "type": "uint256"
            }
          ],
          "internalType": "struct IStructs.StructAddrUint256[]",
          "name": "donations",
          "type": "tuple[]"
        },
        {
          "internalType": "uint64",
          "name": "reserveTokenClaimFraction",
          "type": "uint64"
        },
        {
          "internalType": "uint64",
          "name": "tradedTokenClaimFraction",
          "type": "uint64"
        },
        {
          "internalType": "uint64",
          "name": "lpClaimFraction",
          "type": "uint64"
        },
        {
          "internalType": "uint64",
          "name": "numerator",
          "type": "uint64"
        },
        {
          "internalType": "uint64",
          "name": "denominator",
          "type": "uint64"
        }
      ],
      "name": "produce",
      "outputs": [
        {
          "internalType": "address",
          "name": "instance",
          "type": "address"
        }
      ],
      "stateMutability": "nonpayable",
      "type": "function"
    },
    {
      "inputs": [
        {
          "internalType": "uint256",
          "name": "amount",
          "type": "uint256"
        },
        {
          "internalType": "address[]",
          "name": "preferredInstances",
          "type": "address[]"
        }
      ],
      "name": "redeem",
      "outputs": [],
      "stateMutability": "nonpayable",
      "type": "function"
    },
    {
      "inputs": [
        {
          "internalType": "uint256",
          "name": "amount",
          "type": "uint256"
        }
      ],
      "name": "redeem",
      "outputs": [],
      "stateMutability": "nonpayable",
      "type": "function"
    },
    {
      "inputs": [
        {
          "internalType": "uint256",
          "name": "amount",
          "type": "uint256"
        }
      ],
      "name": "redeemAndRemoveLiquidity",
      "outputs": [],
      "stateMutability": "nonpayable",
      "type": "function"
    },
    {
      "inputs": [
        {
          "internalType": "uint256",
          "name": "amount",
          "type": "uint256"
        },
        {
          "internalType": "address[]",
          "name": "preferredInstances",
          "type": "address[]"
        }
      ],
      "name": "redeemAndRemoveLiquidity",
      "outputs": [],
      "stateMutability": "nonpayable",
      "type": "function"
    },
    {
      "inputs": [
        {
          "internalType": "uint256",
          "name": "amount",
          "type": "uint256"
        }
      ],
      "name": "removeFromCirculation",
      "outputs": [],
      "stateMutability": "nonpayable",
      "type": "function"
    },
    {
      "inputs": [],
      "name": "renounceOwnership",
      "outputs": [],
      "stateMutability": "nonpayable",
      "type": "function"
    },
    {
      "inputs": [
        {
          "internalType": "address",
          "name": "operator",
          "type": "address"
        }
      ],
      "name": "revokeOperator",
      "outputs": [],
      "stateMutability": "nonpayable",
      "type": "function"
    },
    {
      "inputs": [
        {
          "internalType": "bytes32",
          "name": "role",
          "type": "bytes32"
        },
        {
          "internalType": "address",
          "name": "account",
          "type": "address"
        }
      ],
      "name": "revokeRole",
      "outputs": [],
      "stateMutability": "nonpayable",
      "type": "function"
    },
    {
      "inputs": [],
      "name": "rolesManagement",
      "outputs": [
        {
          "internalType": "contract CommunityRolesManagement",
          "name": "",
          "type": "address"
        }
      ],
      "stateMutability": "view",
      "type": "function"
    },
    {
      "inputs": [
        {
          "internalType": "address",
          "name": "recipient",
          "type": "address"
        },
        {
          "internalType": "uint256",
          "name": "amount",
          "type": "uint256"
        },
        {
          "internalType": "bytes",
          "name": "data",
          "type": "bytes"
        }
      ],
      "name": "send",
      "outputs": [],
      "stateMutability": "nonpayable",
      "type": "function"
    },
    {
      "inputs": [
        {
          "internalType": "address",
          "name": "forwarder",
          "type": "address"
        }
      ],
      "name": "setTrustedForwarder",
      "outputs": [],
      "stateMutability": "nonpayable",
      "type": "function"
    },
    {
      "inputs": [
        {
          "internalType": "address",
          "name": "account",
          "type": "address"
        },
        {
          "internalType": "uint256",
          "name": "amount",
          "type": "uint256"
        },
        {
          "internalType": "address[]",
          "name": "preferredInstances",
          "type": "address[]"
        },
        {
          "internalType": "address[][]",
          "name": "swapPaths",
          "type": "address[][]"
        }
      ],
      "name": "simulateRedeemAndRemoveLiquidity",
      "outputs": [
        {
          "internalType": "address",
          "name": "",
          "type": "address"
        },
        {
          "internalType": "uint256",
          "name": "",
          "type": "uint256"
        }
      ],
      "stateMutability": "view",
      "type": "function"
    },
    {
      "inputs": [],
      "name": "symbol",
      "outputs": [
        {
          "internalType": "string",
          "name": "",
          "type": "string"
        }
      ],
      "stateMutability": "view",
      "type": "function"
    },
    {
      "inputs": [
        {
          "internalType": "address",
          "name": "operator",
          "type": "address"
        },
        {
          "internalType": "address",
          "name": "from",
          "type": "address"
        },
        {
          "internalType": "address",
          "name": "to",
          "type": "address"
        },
        {
          "internalType": "uint256",
          "name": "amount",
          "type": "uint256"
        },
        {
          "internalType": "bytes",
          "name": "userData",
          "type": "bytes"
        },
        {
          "internalType": "bytes",
          "name": "operatorData",
          "type": "bytes"
        }
      ],
      "name": "tokensReceived",
      "outputs": [],
      "stateMutability": "nonpayable",
      "type": "function"
    },
    {
      "inputs": [],
      "name": "totalSupply",
      "outputs": [
        {
          "internalType": "uint256",
          "name": "",
          "type": "uint256"
        }
      ],
      "stateMutability": "view",
      "type": "function"
    },
    {
      "inputs": [
        {
          "internalType": "address",
          "name": "recipient",
          "type": "address"
        },
        {
          "internalType": "uint256",
          "name": "amount",
          "type": "uint256"
        }
      ],
      "name": "transfer",
      "outputs": [
        {
          "internalType": "bool",
          "name": "",
          "type": "bool"
        }
      ],
      "stateMutability": "nonpayable",
      "type": "function"
    },
    {
      "inputs": [
        {
          "internalType": "address",
          "name": "holder",
          "type": "address"
        },
        {
          "internalType": "address",
          "name": "recipient",
          "type": "address"
        },
        {
          "internalType": "uint256",
          "name": "amount",
          "type": "uint256"
        }
      ],
      "name": "transferFrom",
      "outputs": [
        {
          "internalType": "bool",
          "name": "",
          "type": "bool"
        }
      ],
      "stateMutability": "nonpayable",
      "type": "function"
    },
    {
      "inputs": [
        {
          "internalType": "address",
          "name": "newOwner",
          "type": "address"
        }
      ],
      "name": "transferOwnership",
      "outputs": [],
      "stateMutability": "nonpayable",
      "type": "function"
    },
    {
      "inputs": [
        {
          "internalType": "uint256",
          "name": "amount",
          "type": "uint256"
        }
      ],
      "name": "unstake",
      "outputs": [],
      "stateMutability": "nonpayable",
      "type": "function"
    },
    {
      "inputs": [
        {
          "internalType": "uint256",
          "name": "amount",
          "type": "uint256"
        }
      ],
      "name": "unstakeAndRemoveLiquidity",
      "outputs": [],
      "stateMutability": "nonpayable",
      "type": "function"
    },
    {
      "inputs": [
        {
          "internalType": "address",
          "name": "account",
          "type": "address"
        }
      ],
      "name": "viewLockedWalletTokens",
      "outputs": [
        {
          "internalType": "uint256",
          "name": "amount",
          "type": "uint256"
        }
      ],
      "stateMutability": "view",
      "type": "function"
    },
    {
      "inputs": [
        {
          "internalType": "address",
          "name": "account",
          "type": "address"
        }
      ],
      "name": "viewLockedWalletTokensList",
      "outputs": [
        {
          "internalType": "uint256[][]",
          "name": "",
          "type": "uint256[][]"
        }
      ],
      "stateMutability": "view",
      "type": "function"
    }
  ],
  "bytecode": "0x608060405234801561001057600080fd5b50615fcb80620000216000396000f3fe608060405234801561001057600080fd5b50600436106102325760003560e01c80638da5cb5b11610131578063d547741f116100b3578063d547741f146104b1578063d95b6371146104c4578063da742228146104d7578063db006a75146104ea578063dd62ed3e146104fd578063e4b739e014610510578063e8a115e314610531578063f2fde38b14610544578063fad8b32a14610557578063fc673c4f1461056a578063fe9d93031461057d57600080fd5b80638da5cb5b146103e9578063959b8c3f146103f157806395d89b41146104045780639bd9bbc61461040c5780639efb64dd1461041f578063a9059cbb14610432578063ad259b6014610445578063bef584b214610458578063c69f195b14610478578063c75aa5671461048b578063c7ba1ec21461049e57600080fd5b80632f2ff15d116101ba5780632f2ff15d14610333578063313ce56714610346578063556f0dc714610355578063572b6c051461035c57806362ad1b831461036f578063696bd78b1461038257806370a0823114610395578063715018a6146103a85780637c0a40c5146103b05780637c8e1b8a146103c35780637f5a7c7b146103d657600080fd5b806223de29146102375780624f74f61461024c57806306e485381461025f57806306fdde031461027d5780630959bd1a14610292578063095ea7b3146102a557806310c545cd146102c857806318160ddd146102e85780631fdcbc2f146102fa57806323b872dd1461030d5780632e17de7814610320575b600080fd5b61024a610245366004614b3f565b610590565b005b61024a61025a366004614bef565b61068e565b6102676106f3565b6040516102749190614c4c565b60405180910390f35b610285610755565b6040516102749190614cb7565b61024a6102a0366004614df2565b6107de565b6102b86102b3366004614e38565b61081a565b6040519015158152602001610274565b60ce546102db906001600160a01b031681565b6040516102749190614e64565b6067545b604051908152602001610274565b6102db610308366004614f15565b61083e565b6102b861031b366004614faf565b610898565b61024a61032e366004614bef565b6109cd565b61024a610341366004614ff0565b610a28565b60405160128152602001610274565b60016102ec565b6102b861036a366004615020565b610acf565b61024a61037d3660046150b5565b610ada565b61024a610390366004614bef565b610b1d565b6102ec6103a3366004615020565b610bda565b61024a610bf5565b6102ec6103be366004615020565b610c40565b61024a6103d1366004615147565b610c4b565b60cc546102db906001600160a01b031681565b6102db610e26565b61024a6103ff366004615020565b610e35565b610285610f9e565b61024a61041a3660046151e7565b610fad565b61024a61042d36600461523f565b610fd7565b6102b8610440366004614e38565b611260565b61024a610453366004614bef565b61131a565b61046b610466366004615020565b6113d7565b60405161027491906152a4565b61024a610486366004614bef565b6113e2565b61024a610499366004614df2565b611435565b60cd546102db906001600160a01b031681565b61024a6104bf366004614ff0565b611471565b6102b86104d2366004615306565b6114e2565b61024a6104e5366004615020565b611584565b61024a6104f8366004614bef565b61164b565b6102ec61050b366004615306565b611696565b61052361051e366004615334565b6116c1565b604051610274929190615425565b6102db61053f36600461543e565b611765565b61024a610552366004615020565b6117c3565b61024a610565366004615020565b611887565b61024a6105783660046154ee565b6119ee565b61024a61058b36600461556d565b611a2d565b30610599611a53565b6001600160a01b03161480156105b757506001600160a01b03861630145b6106045760405162461bcd60e51b81526020600482015260196024820152786f776e20746f6b656e73207065726d6974746564206f6e6c7960381b60448201526064015b60405180910390fd5b60ce546040516394f1d57760e01b81526001600160a01b03909116906394f1d57790610634908a90600401614e64565b60006040518083038186803b15801561064c57600080fd5b505afa158015610660573d6000803e3d6000fd5b50506040805160008152602081019091526106849250309150899088906002611a62565b5050505050505050565b6002609a5414156106b15760405162461bcd60e51b81526004016105fb906155a9565b6002609a5560006106c0611a53565b90506106cc8183611c2e565b6040805160008152602081019091526106ea90829084906001611cbf565b50506001609a55565b6060606a80548060200260200160405190810160405280929190818152602001828054801561074b57602002820191906000526020600020905b81546001600160a01b0316815260019091019060200180831161072d575b5050505050905090565b606060688054610764906155e0565b80601f0160208091040260200160405190810160405280929190818152602001828054610790906155e0565b801561074b5780601f106107b25761010080835404028352916020019161074b565b820191906000526020600020905b8154815290600101906020018083116107c057509395945050505050565b6002609a5414156108015760405162461bcd60e51b81526004016105fb906155a9565b6002609a556106ea610811611a53565b83836002611dd9565b600080610825611a53565b9050610832818585611e46565b60019150505b92915050565b6000610848611a53565b6001600160a01b0316610859610e26565b6001600160a01b03161461087f5760405162461bcd60e51b81526004016105fb9061561b565b61088d878787878787611f6d565b979650505050505050565b60006001600160a01b0383166108c05760405162461bcd60e51b81526004016105fb90615650565b6001600160a01b0384166109255760405162461bcd60e51b815260206004820152602660248201527f4552433737373a207472616e736665722066726f6d20746865207a65726f206160448201526564647265737360d01b60648201526084016105fb565b600061092f611a53565b905061095d818686866040518060200160405280600081525060405180602001604052806000815250612038565b610968858285612158565b6109948186868660405180602001604052806000815250604051806020016040528060008152506121cc565b6109c2818686866040518060200160405280600081525060405180602001604052806000815250600061232c565b506001949350505050565b6002609a5414156109f05760405162461bcd60e51b81526004016105fb906155a9565b6002609a5560006109ff611a53565b9050610a0b8183611c2e565b604080516000808252602082019092526106ea9183918591611cbf565b610a30611a53565b6001600160a01b0316610a41610e26565b6001600160a01b031614610a675760405162461bcd60e51b81526004016105fb9061561b565b60ce54604051632f2ff15d60e01b81526001600160a01b0390911690632f2ff15d90610a999085908590600401615694565b600060405180830381600087803b158015610ab357600080fd5b505af1158015610ac7573d6000803e3d6000fd5b505050505050565b6000610838826124df565b610aeb610ae5611a53565b866114e2565b610b075760405162461bcd60e51b81526004016105fb906156ab565b610b16858585858560016124f3565b5050505050565b6002609a541415610b405760405162461bcd60e51b81526004016105fb906155a9565b6002609a556000610b4f611a53565b60ce5460405163079122d560e11b81529192506001600160a01b031690630f2245aa90610b80908490600401614e64565b60006040518083038186803b158015610b9857600080fd5b505afa158015610bac573d6000803e3d6000fd5b505050506106ea818360405180602001604052806000815250604051806020016040528060008152506125e1565b6001600160a01b031660009081526066602052604090205490565b610bfd611a53565b6001600160a01b0316610c0e610e26565b6001600160a01b031614610c345760405162461bcd60e51b81526004016105fb9061561b565b610c3e60006125ef565b565b600061083882612641565b600054610100900460ff16610c665760005460ff1615610c6a565b303b155b610ccd5760405162461bcd60e51b815260206004820152602e60248201527f496e697469616c697a61626c653a20636f6e747261637420697320616c72656160448201526d191e481a5b9a5d1a585b1a5e995960921b60648201526084016105fb565b600054610100900460ff16158015610cef576000805461ffff19166101011790555b610e09826001600160a01b03166306fdde036040518163ffffffff1660e01b8152600401600060405180830381865afa158015610d30573d6000803e3d6000fd5b505050506040513d6000823e601f3d908101601f19168201604052610d5891908101906156f7565b604051602001610d68919061576d565b604051602081830303815290604052836001600160a01b03166395d89b416040518163ffffffff1660e01b8152600401600060405180830381865afa158015610db5573d6000803e3d6000fd5b505050506040513d6000823e601f3d908101601f19168201604052610ddd91908101906156f7565b604051602001610ded919061579c565b6040516020818303038152906040528b8b8b8b8b8b8b8b61277f565b8015610e1b576000805461ff00191690555b505050505050505050565b6033546001600160a01b031690565b806001600160a01b0316610e47611a53565b6001600160a01b03161415610eaa5760405162461bcd60e51b8152602060048201526024808201527f4552433737373a20617574686f72697a696e672073656c66206173206f70657260448201526330ba37b960e11b60648201526084016105fb565b6001600160a01b0381166000908152606b602052604090205460ff1615610f0d57606d6000610ed7611a53565b6001600160a01b03908116825260208083019390935260409182016000908120918516815292529020805460ff19169055610f54565b6001606c6000610f1b611a53565b6001600160a01b03908116825260208083019390935260409182016000908120918616815292529020805460ff19169115159190911790555b610f5c611a53565b6001600160a01b0316816001600160a01b03167ff4caeb2d6ca8932a215a353d0703c326ec2d81fc68170f320eb2ab49e9df61f960405160405180910390a350565b606060698054610764906155e0565b610fd2610fb8611a53565b8484846040518060200160405280600081525060016124f3565b505050565b60cd54604051637ca2500160e01b815233916000916001600160a01b0390911690637ca250019061100c908590600401614e64565b61018060405180830381865afa15801561102a573d6000803e3d6000fd5b505050506040513d601f19601f8201168201806040525081019061104e91906157fe565b90508061012001511515600115151461106657600080fd5b6001600160a01b038216600090815260d460205260408120805486929061108e908490615900565b90915550506040810151620186a0906110b0906001600160401b031686615918565b6110ba919061594d565b6110c49085615900565b60cc549094506001600160a01b03161561115b5760cc5460208201516040516316f3a59960e11b81526001600160a01b03858116600483015288811660248301526001600160401b03909216604482015260648101879052911690632de74b3290608401600060405180830381600087803b15801561114257600080fd5b505af1158015611156573d6000803e3d6000fd5b505050505b6001600160a01b038516600090815260d5602052604081208054869290611183908490615900565b925050819055508360d0600082825461119c9190615900565b90915550506101008101516111b290600a615a45565b60e08201516111c290600a615a45565b6111cc9086615918565b6111d6919061594d565b9350611202858560405180602001604052806000815250604051806020016040528060008152506125e1565b60408051858152602081018590526001600160a01b038716917f1449c6dd7851abc30abf37f57715f492010519147cc2652fbc38202c18a6ee90910160405180910390a2610ac7858583602001516001600160401b0316600061293e565b60006001600160a01b0383166112885760405162461bcd60e51b81526004016105fb90615650565b6000611292611a53565b90506112c0818286866040518060200160405280600081525060405180602001604052806000815250612038565b6112ec8182868660405180602001604052806000815250604051806020016040528060008152506121cc565b610832818286866040518060200160405280600081525060405180602001604052806000815250600061232c565b6002609a54141561133d5760405162461bcd60e51b81526004016105fb906155a9565b6002609a55600061134c611a53565b60ce5460405163079122d560e11b81529192506001600160a01b031690630f2245aa9061137d908490600401614e64565b60006040518083038186803b15801561139557600080fd5b505afa1580156113a9573d6000803e3d6000fd5b505050506106ea818360405180602001604052806000815250604051806020016040528060008152506129d8565b606061083882612b93565b6002609a5414156114055760405162461bcd60e51b81526004016105fb906155a9565b6002609a5561142d611415611a53565b60408051600081526020810190915283906003611dd9565b506001609a55565b6002609a5414156114585760405162461bcd60e51b81526004016105fb906155a9565b6002609a556106ea611468611a53565b83836003611dd9565b611479611a53565b6001600160a01b031661148a610e26565b6001600160a01b0316146114b05760405162461bcd60e51b81526004016105fb9061561b565b60ce5460405163d547741f60e01b81526001600160a01b039091169063d547741f90610a999085908590600401615694565b6000816001600160a01b0316836001600160a01b0316148061154d57506001600160a01b0383166000908152606b602052604090205460ff16801561154d57506001600160a01b038083166000908152606d602090815260408083209387168352929052205460ff16155b8061157d57506001600160a01b038083166000908152606c602090815260408083209387168352929052205460ff165b9392505050565b61158c611a53565b6001600160a01b031661159d610e26565b6001600160a01b0316146115c35760405162461bcd60e51b81526004016105fb9061561b565b806001600160a01b03166115d5610e26565b6001600160a01b031614156116295760405162461bcd60e51b815260206004820152601a6024820152792327a92ba0a92222a92fa1a0a72fa727aa2fa122afa7aba722a960311b60448201526064016105fb565b606580546001600160a01b0319166001600160a01b0392909216919091179055565b6002609a54141561166e5760405162461bcd60e51b81526004016105fb906155a9565b6002609a5561142d61167e611a53565b60408051600081526020810190915283906002611dd9565b6001600160a01b039182166000908152606e6020908152604080832093909416825291909152205490565b6000806000806116dd88888860036116d860675490565b612dc9565b5060cd5460405163271294bb60e11b81529294509092506001600160a01b031690634e2529769061171690859085908a90600401615a5a565b6040805180830381865afa158015611732573d6000803e3d6000fd5b505050506040513d601f19601f820116820180604052508101906117569190615b11565b93509350505094509492505050565b600061176f611a53565b6001600160a01b0316611780610e26565b6001600160a01b0316146117a65760405162461bcd60e51b81526004016105fb9061561b565b6117b689898989898989896133f4565b9998505050505050505050565b6117cb611a53565b6001600160a01b03166117dc610e26565b6001600160a01b0316146118025760405162461bcd60e51b81526004016105fb9061561b565b6065546001600160a01b03163314156118545760405162461bcd60e51b81526020600482015260146024820152732222a724a2a22fa327a92fa327a92ba0a92222a960611b60448201526064016105fb565b6065546001600160a01b038281169116141561187b57606580546001600160a01b03191690555b611884816134e0565b50565b61188f611a53565b6001600160a01b0316816001600160a01b031614156118fa5760405162461bcd60e51b815260206004820152602160248201527f4552433737373a207265766f6b696e672073656c66206173206f70657261746f6044820152603960f91b60648201526084016105fb565b6001600160a01b0381166000908152606b602052604090205460ff1615611966576001606d6000611929611a53565b6001600160a01b03908116825260208083019390935260409182016000908120918616815292529020805460ff19169115159190911790556119a4565b606c6000611972611a53565b6001600160a01b03908116825260208083019390935260409182016000908120918516815292529020805460ff191690555b6119ac611a53565b6001600160a01b0316816001600160a01b03167f50546e66e5f44d728365dc3908c63bc5cfeeab470722c1677e3073a6ac294aa160405160405180910390a350565b6119ff6119f9611a53565b856114e2565b611a1b5760405162461bcd60e51b81526004016105fb906156ab565b611a27848484846129d8565b50505050565b611a4f611a38611a53565b8383604051806020016040528060008152506129d8565b5050565b6000611a5d61358d565b905090565b6000611a6e86856135b6565b905060d154841115611a925760405162461bcd60e51b81526004016105fb90615b3f565b6000806000611aa48888888888612dc9565b92509250925060005b81811015611c2257600060d46000868481518110611acd57611acd615b6d565b60200260200101516001600160a01b03166001600160a01b03168152602001908152602001600020541115611c1057828181518110611b0e57611b0e615b6d565b602002602001015160d46000868481518110611b2c57611b2c615b6d565b60200260200101516001600160a01b03166001600160a01b031681526020019081526020016000206000828254611b639190615b83565b92505081905550828181518110611b7c57611b7c615b6d565b602002602001015160d16000828254611b959190615b83565b92505081905550611c1089858381518110611bb257611bb2615b6d565b6020026020010151858481518110611bcc57611bcc615b6d565b6020026020010151896040518060400160405280602081526020017f4572726f72207768656e2072656465656d20696e20616e20696e7374616e6365815250613651565b80611c1a81615b9a565b915050611aad565b50505050505050505050565b6000611c3983610bda565b905080821115611c5b5760405162461bcd60e51b81526004016105fb90615b3f565b6000611c6684612641565b90506000611c748484615b83565b905080821115610b165760405162461bcd60e51b815260206004820152601660248201527514d51052d157d393d517d5539313d0d2d15117d6515560521b60448201526064016105fb565b6000611ccb85856135b6565b90506000806000611cdf8888888888612dc9565b92509250925060005b81811015610e1b57828181518110611d0257611d02615b6d565b602002602001015160d46000868481518110611d2057611d20615b6d565b60200260200101516001600160a01b03166001600160a01b031681526020019081526020016000206000828254611d579190615b83565b92505081905550611dc789858381518110611d7457611d74615b6d565b6020026020010151858481518110611d8e57611d8e615b6d565b602002602001015189604051806040016040528060128152602001714572726f72207768656e20756e7374616b6560701b815250613651565b80611dd181615b9a565b915050611ce8565b60ce546040516394f1d57760e01b81526001600160a01b03909116906394f1d57790611e09908790600401614e64565b60006040518083038186803b158015611e2157600080fd5b505afa158015611e35573d6000803e3d6000fd5b50505050611a278485858585611a62565b6001600160a01b038316611eaa5760405162461bcd60e51b815260206004820152602560248201527f4552433737373a20617070726f76652066726f6d20746865207a65726f206164604482015264647265737360d81b60648201526084016105fb565b6001600160a01b038216611f0c5760405162461bcd60e51b815260206004820152602360248201527f4552433737373a20617070726f766520746f20746865207a65726f206164647260448201526265737360e81b60648201526084016105fb565b6001600160a01b038381166000818152606e602090815260408083209487168084529482529182902085905590518481527f8c5be1e5ebec7d5bd14f71427d1e84f3dd0314c0f7b2291e5b200ac8c7c3b925910160405180910390a3505050565b60cd5460405163309c981760e21b81526000916001600160a01b03169063c272605c90611fa8908a908a908a908a908a908a90600401615bf9565b6020604051808303816000875af1158015611fc7573d6000803e3d6000fd5b505050506040513d601f19601f82011682018060405250810190611feb9190615c4d565b9050866001600160a01b03167f53ea91d241feec51650b775b25cfc95a2377cbe9282bf2a38d7b34b211089394826040516120269190614e64565b60405180910390a29695505050505050565b60405163555ddc6560e11b8152600090731820a4b7618bde71dce8cdc73aab6c95905fad249063aabbb8ca906120949089907f29ddb589b1fb5fc7cf394961c1adf5f8c6454761adf795e67fe149f658abe89590600401615425565b602060405180830381865afa1580156120b1573d6000803e3d6000fd5b505050506040513d601f19601f820116820180604052508101906120d59190615c4d565b90506001600160a01b0381161561214f57604051633ad5cbc160e11b81526001600160a01b038216906375ab97829061211c908a908a908a908a908a908a90600401615c6a565b600060405180830381600087803b15801561213657600080fd5b505af115801561214a573d6000803e3d6000fd5b505050505b50505050505050565b60006121648484611696565b90506000198114611a2757818110156121bf5760405162461bcd60e51b815260206004820152601e60248201527f4552433737373a20696e73756666696369656e7420616c6c6f77616e6365000060448201526064016105fb565b611a278484848403611e46565b6121d8868686866137b0565b6001600160a01b038516600090815260666020526040902054838110156122515760405162461bcd60e51b815260206004820152602760248201527f4552433737373a207472616e7366657220616d6f756e7420657863656564732060448201526662616c616e636560c81b60648201526084016105fb565b6001600160a01b03808716600090815260666020526040808220878503905591871681529081208054869290612288908490615900565b92505081905550846001600160a01b0316866001600160a01b0316886001600160a01b03167f06b541ddaa720db2b10a4d0cdac39b8d360425fc073085fac19bc826146779878787876040516122e093929190615cb7565b60405180910390a4846001600160a01b0316866001600160a01b0316600080516020615f9f8339815191528660405161231b91815260200190565b60405180910390a350505050505050565b60405163555ddc6560e11b8152600090731820a4b7618bde71dce8cdc73aab6c95905fad249063aabbb8ca906123889089907fb281fc8c12954d22544db45de3159a39272895b169a852b314f9cc762e44c53b90600401615425565b602060405180830381865afa1580156123a5573d6000803e3d6000fd5b505050506040513d601f19601f820116820180604052508101906123c99190615c4d565b90506001600160a01b03811615612445576040516223de2960e01b81526001600160a01b038216906223de299061240e908b908b908b908b908b908b90600401615c6a565b600060405180830381600087803b15801561242857600080fd5b505af115801561243c573d6000803e3d6000fd5b50505050610684565b8115610684576001600160a01b0386163b156106845760405162461bcd60e51b815260206004820152604d60248201527f4552433737373a20746f6b656e20726563697069656e7420636f6e747261637460448201527f20686173206e6f20696d706c656d656e74657220666f7220455243373737546f60648201526c1ad95b9cd49958da5c1a595b9d609a1b608482015260a4016105fb565b6065546001600160a01b0391821691161490565b6001600160a01b0386166125545760405162461bcd60e51b815260206004820152602260248201527f4552433737373a2073656e642066726f6d20746865207a65726f206164647265604482015261737360f01b60648201526084016105fb565b6001600160a01b0385166125aa5760405162461bcd60e51b815260206004820181905260248201527f4552433737373a2073656e6420746f20746865207a65726f206164647265737360448201526064016105fb565b60006125b4611a53565b90506125c4818888888888612038565b6125d28188888888886121cc565b61214f8188888888888861232c565b611a278484848460016139f1565b603380546001600160a01b038381166001600160a01b0319831681179093556040519116919082907f8be0079c531659141344cd1fd0a4f28419497f9722a3daafe3b4186f6b6457e090600090a35050565b60008080805b6001600160a01b038516600090815260986020526040902061266890613b30565b811015612777576001600160a01b03851660009081526098602052604090206126919082613b3a565b9250824211612765576126a44284615b83565b6001600160a01b03861660009081526098602090815260408083208784526002019091529020546126d59190615918565b6001600160a01b038616600090815260986020908152604080832087845260029081019092529091209081015460019091015491935090831061274b576001600160a01b03861660009081526098602090815260408083208784526002019091529020600101546127469084615b83565b61274e565b60005b6127589086615900565b6127629190615900565b93505b8061276f81615b9a565b915050612647565b505050919050565b600054610100900460ff166127a65760405162461bcd60e51b81526004016105fb90615cec565b6127ae613b46565b6040805160008152602081019091526127ca908b908b90613b87565b6127d662015180613bb9565b6127de613c1a565b60cd80546001600160a01b0319166001600160a01b0387811691821790925560405163485cc95560e01b81528a8316600482015291891660248301529063485cc95590604401600060405180830381600087803b15801561283e57600080fd5b505af1158015612852573d6000803e3d6000fd5b505060cc80546001600160a01b03808b166001600160a01b03199283161790925560cf88905560ce805488841690831617905560d2805487841690831617905560d380549286169290911691909117905550506040516329965a1d60e01b8152731820a4b7618bde71dce8cdc73aab6c95905fad24906329965a1d906129009030907fb281fc8c12954d22544db45de3159a39272895b169a852b314f9cc762e44c53b908290600401615d37565b600060405180830381600087803b15801561291a57600080fd5b505af115801561292e573d6000803e3d6000fd5b5050505050505050505050505050565b60008061294a42613c49565b6099549091506000906129639063ffffffff1686615918565b61296d9083615900565b90508181116129b25760405162461bcd60e51b81526020600482015260116024820152701512535154d510535417d2539590531251607a1b60448201526064016105fb565b6129bd876000613c69565b506129cb8783838988613d51565b5060019695505050505050565b6001600160a01b038416612a395760405162461bcd60e51b815260206004820152602260248201527f4552433737373a206275726e2066726f6d20746865207a65726f206164647265604482015261737360f01b60648201526084016105fb565b6000612a43611a53565b9050612a5481866000878787612038565b612a6181866000876137b0565b6001600160a01b03851660009081526066602052604090205484811015612ad65760405162461bcd60e51b815260206004820152602360248201527f4552433737373a206275726e20616d6f756e7420657863656564732062616c616044820152626e636560e81b60648201526084016105fb565b6001600160a01b0386166000908152606660205260408120868303905560678054879290612b05908490615b83565b92505081905550856001600160a01b0316826001600160a01b03167fa78a9be3a7b862d26933ad85fb11d80ef66b8f972d7cbba06621d583943a4098878787604051612b5393929190615cb7565b60405180910390a36040518581526000906001600160a01b03881690600080516020615f9f833981519152906020015b60405180910390a3505050505050565b6001600160a01b03811660009081526098602052604081206060919081908190612bbc90613b30565b90506000816001600160401b03811115612bd857612bd8614cca565b604051908082528060200260200182016040528015612c0b57816020015b6060815260200190600190039081612bf65790505b50905060005b82811015612dbf576001600160a01b0387166000908152609860205260409020612c3b9082613b3a565b9450844211612dad57612c4e4286615b83565b6001600160a01b0388166000908152609860209081526040808320898452600201909152902054612c7f9190615918565b604080516002808252606082018352929650919060208301908036833701905050828281518110612cb257612cb2615b6d565b602002602001018190525084828281518110612cd057612cd0615b6d565b6020026020010151600181518110612cea57612cea615b6d565b6020908102919091018101919091526001600160a01b038816600090815260988252604080822088835260029081019093529020908101546001909101548510612d67576001600160a01b0388166000908152609860209081526040808320898452600201909152902060010154612d629086615b83565b612d6a565b60005b612d749190615900565b828281518110612d8657612d86615b6d565b6020026020010151600081518110612da057612da0615b6d565b6020026020010181815250505b80612db781615b9a565b915050612c11565b5095945050505050565b604080516101808101825260008082526020820181905291810182905260608181018390526080820183905260a0820183905260c0820183905260e0820183905261010082018390526101208201839052610140820183905261016082018390529182918651612eb15760cd60009054906101000a90046001600160a01b03166001600160a01b0316634d2ace666040518163ffffffff1660e01b8152600401600060405180830381865afa158015612e86573d6000803e3d6000fd5b505050506040513d6000823e601f3d908101601f19168201604052612eae9190810190615d5a565b96505b86516001600160401b03811115612eca57612eca614cca565b604051908082528060200260200182016040528015612ef3578160200160208202803683370190505b50935086516001600160401b03811115612f0f57612f0f614cca565b604051908082528060200260200182016040528015612f38578160200160208202803683370190505b5092506000915081886002886003811115612f5557612f55615de8565b1480612f7257506003886003811115612f7057612f70615de8565b145b15612ff55760d15460d054600090612f8a838b615b83565b612f949190615b83565b9050620186a0612fa48385615918565b612fae9190615918565b60cf54909350620186a090612fc39083615918565b612fcd919061594d565b612fd79083615900565b612fe1908461594d565b9250612ff0620186a08461594d565b925050505b60005b89518110156133a157600060d460008c848151811061301957613019615b6d565b60200260200101516001600160a01b03166001600160a01b0316815260200190815260200160002054111561338f57600089600381111561305c5761305c615de8565b14806130795750600189600381111561307757613077615de8565b145b1561318e5760d460008b838151811061309457613094615b6d565b60200260200101516001600160a01b03166001600160a01b031681526020019081526020016000205482116130c95781613187565b6001600160a01b038c16600090815260d560205260408120548b51909160d4918d90859081106130fb576130fb615b6d565b60200260200101516001600160a01b03166001600160a01b03168152602001908152602001600020541161316d5760d460008b838151811061313f5761313f615b6d565b60200260200101516001600160a01b03166001600160a01b0316815260200190815260200160002054613187565b6001600160a01b038c16600090815260d560205260409020545b9250613252565b60028960038111156131a2576131a2615de8565b14806131bf575060038960038111156131bd576131bd615de8565b145b156132525760d460008b83815181106131da576131da615b6d565b60200260200101516001600160a01b03166001600160a01b0316815260200190815260200160002054821161320f578161324f565b60d460008b838151811061322557613225615b6d565b60200260200101516001600160a01b03166001600160a01b03168152602001908152602001600020545b92505b821561338f5789818151811061326a5761326a615b6d565b602002602001015187868151811061328457613284615b6d565b6001600160a01b03928316602091820292909201015260cd548b51911690637ca25001908c90849081106132ba576132ba615b6d565b60200260200101516040518263ffffffff1660e01b81526004016132de9190614e64565b61018060405180830381865afa1580156132fc573d6000803e3d6000fd5b505050506040513d601f19601f8201168201806040525081019061332091906157fe565b93508360e00151600a6133339190615a45565b61010085015161334490600a615a45565b61334e9085615918565b613358919061594d565b86868151811061336a5761336a615b6d565b6020908102919091010152613380600186615900565b945061338c8383615b83565b91505b8061339981615b9a565b915050612ff8565b5080156133e65760405162461bcd60e51b81526020600482015260136024820152721a5b9cdd59999a58da595b9d08185b5bdd5b9d606a1b60448201526064016105fb565b505050955095509592505050565b60cd5460d25460d35460405163093d85d960e41b81526000936001600160a01b03908116936393d85d9093613441939183169216908e908e908e908e908e908e908e908e90600401615dfe565b6020604051808303816000875af1158015613460573d6000803e3d6000fd5b505050506040513d601f19601f820116820180604052508101906134849190615c4d565b60d35460d2546040519293506001600160a01b03918216929116907fc88bd7cfbe8bae024ebb6f3cf291adfd7db2588a07e1c78768ea3c81b992496b906134cc908590614e64565b60405180910390a398975050505050505050565b6134e8611a53565b6001600160a01b03166134f9610e26565b6001600160a01b03161461351f5760405162461bcd60e51b81526004016105fb9061561b565b6001600160a01b0381166135845760405162461bcd60e51b815260206004820152602660248201527f4f776e61626c653a206e6577206f776e657220697320746865207a65726f206160448201526564647265737360d01b60648201526084016105fb565b611884816125ef565b33601436108015906135a357506135a3816124df565b156135b3575060131936013560601c5b90565b60006135c160675490565b90506001600160a01b038316301461362757816135de8430611696565b10156136275760405162461bcd60e51b8152602060048201526018602482015277416d6f756e74206578636565647320616c6c6f77616e636560401b60448201526064016105fb565b610838838360405180602001604052806000815250604051806020016040528060008152506129d8565b600282600381111561366557613665615de8565b14806136825750600082600381111561368057613680615de8565b145b15613703576040516301e9a69560e41b81526001600160a01b03851690631e9a6950906136b59088908790600401615425565b600060405180830381600087803b1580156136cf57600080fd5b505af19250505080156136e0575060015b6136fe578060405162461bcd60e51b81526004016105fb9190614cb7565b610b16565b600182600381111561371757613717615de8565b14806137345750600382600381111561373257613732615de8565b145b15610b16576040516382341e8f60e01b81526001600160a01b038516906382341e8f906137679088908790600401615425565b600060405180830381600087803b15801561378157600080fd5b505af1925050508015613792575060015b610b16578060405162461bcd60e51b81526004016105fb9190614cb7565b6001600160a01b038316156139ec576001600160a01b038316301480156137de57506001600160a01b038216155b156137e857611a27565b60cc546001600160a01b0316156138c55760cc5460405163950676d960e01b81526001600160a01b03868116600483015285811660248301528481166044830152606482018490529091169063950676d9906084016020604051808303816000875af115801561385c573d6000803e3d6000fd5b505050506040513d601f19601f820116820180604052508101906138809190615e79565b6138c55760405162461bcd60e51b81526020600482015260166024820152751213d3d2ce881514905394d1915497d414915591539560521b60448201526064016105fb565b60006138d084610bda565b90508181106139ea5760006138e58383615b83565b90506001600160a01b038416158061390557506001600160a01b03841630145b1561390f576139e8565b600061391a86612641565b905060008111801561392c5750838110155b1561393d5761393d86600086613e58565b6001600160a01b038616600090815260d5602052604090205482116139e6576001600160a01b038616600090815260d56020526040812054613980908490615b83565b6001600160a01b038816600090815260d560205260408120805492935083929091906139ad908490615b83565b925050819055508060d060008282546139c69190615b83565b925050819055508060d160008282546139df9190615900565b9091555050505b505b505b505b611a27565b6001600160a01b038516613a475760405162461bcd60e51b815260206004820181905260248201527f4552433737373a206d696e7420746f20746865207a65726f206164647265737360448201526064016105fb565b6000613a51611a53565b9050613a6081600088886137b0565b8460676000828254613a729190615900565b90915550506001600160a01b03861660009081526066602052604081208054879290613a9f908490615900565b90915550613ab59050816000888888888861232c565b856001600160a01b0316816001600160a01b03167f2fe5be0146f74c5bce36c0b80911af6c7d86ff27e89d5cfa61fc681327954e5d878787604051613afc93929190615cb7565b60405180910390a36040518581526001600160a01b03871690600090600080516020615f9f83398151915290602001612b83565b6000610838825490565b600061157d83836141b2565b600054610100900460ff16613b6d5760405162461bcd60e51b81526004016105fb90615cec565b613b756141dc565b606580546001600160a01b0319169055565b600054610100900460ff16613bae5760405162461bcd60e51b81526004016105fb90615cec565b610fd283838361420b565b600054610100900460ff16613be05760405162461bcd60e51b81526004016105fb90615cec565b63ffffffff8116613c00576099805463ffffffff19166201518017905550565b6099805463ffffffff831663ffffffff1990911617905550565b600054610100900460ff16613c415760405162461bcd60e51b81526004016105fb90615cec565b610c3e6143ed565b60995460009063ffffffff16613c5f818461594d565b6108389190615918565b6001600160a01b038216600090815260986020526040812081908190613c8e90613b30565b905080156109c257805b8015613d4557613cca613cac600183615b83565b6001600160a01b038816600090815260986020526040902090613b3a565b925060018515151480613ce4575082613ce242613c49565b115b15613d33576001600160a01b03861660008181526098602081815260408084208885526002808201845291852085815560018101869055909101849055939092529052613d31908461441b565b505b80613d3d81615e94565b915050613c98565b50506001949350505050565b6001600160a01b0385166000908152609860205260409020613d739084614427565b5060018115151415613df057613d898484615b83565b613d93908361594d565b6001600160a01b0386166000908152609860209081526040808320878452600201909152902054613dc49190615900565b6001600160a01b0386166000908152609860209081526040808320878452600201909152902055610b16565b6001600160a01b038516600090815260986020908152604080832086845260029081019092529091200154613e26908390615900565b6001600160a01b0386166000908152609860209081526040808320878452600290810190925290912001555050505050565b6001600160a01b0383166000908152609860205260408120613e7990613b30565b905060608115610b1657816001600160401b03811115613e9b57613e9b614cca565b604051908082528060200260200182016040528015613ec4578160200160208202803683370190505b50905060005b82811015613f23576001600160a01b0386166000908152609860205260409020613ef49082613b3a565b828281518110613f0657613f06615b6d565b602090810291909101015280613f1b81615b9a565b915050613eca565b50613f2d81614433565b905060008060005b8481101561068457838181518110613f4f57613f4f615b6d565b602002602001015142116141a05760986000896001600160a01b03166001600160a01b031681526020019081526020016000206002016000858381518110613f9957613f99615b6d565b602002602001015181526020019081526020016000206002015486106140245760986000896001600160a01b03166001600160a01b031681526020019081526020016000206002016000858381518110613ff557613ff5615b6d565b60200260200101518152602001908152602001600020600201549250828661401d9190615b83565b955061402a565b60009592505b6140508885838151811061404057614040615b6d565b6020026020010151856000614452565b6001600160a01b0387161561408657614086874286848151811061407657614076615b6d565b6020026020010151866000613d51565b8561409057610684565b428482815181106140a3576140a3615b6d565b60200260200101516140b59190615b83565b609860008a6001600160a01b03166001600160a01b0316815260200190815260200160002060020160008684815181106140f1576140f1615b6d565b60200260200101518152602001908152602001600020600001546141159190615918565b915081861061413457819250818661412d9190615b83565b955061413a565b60009592505b6141608885838151811061415057614150615b6d565b6020026020010151856001614452565b6001600160a01b0387161561419657614196874286848151811061418657614186615b6d565b6020026020010151866001613d51565b856141a057610684565b806141aa81615b9a565b915050613f35565b60008260000182815481106141c9576141c9615b6d565b9060005260206000200154905092915050565b600054610100900460ff166142035760405162461bcd60e51b81526004016105fb90615cec565b610c3e614706565b600054610100900460ff166142325760405162461bcd60e51b81526004016105fb90615cec565b82516142459060689060208601906149f8565b5081516142599060699060208501906149f8565b50805161426d90606a906020840190614a78565b5060005b81518110156142d6576001606b600084848151811061429257614292615b6d565b6020908102919091018101516001600160a01b03168252810191909152604001600020805460ff1916911515919091179055806142ce81615b9a565b915050614271565b506040516329965a1d60e01b8152731820a4b7618bde71dce8cdc73aab6c95905fad24906329965a1d906143329030907fac7fbab5f54a3ca8194167523c6753bfeb96a445279294b6125b68cce2177054908290600401615d37565b600060405180830381600087803b15801561434c57600080fd5b505af1158015614360573d6000803e3d6000fd5b50506040516329965a1d60e01b8152731820a4b7618bde71dce8cdc73aab6c95905fad2492506329965a1d91506143bf9030907faea199e31a596269b42cdafd93407f14436db6e4cad65417994c2eb37381e05a908290600401615d37565b600060405180830381600087803b1580156143d957600080fd5b505af115801561214f573d6000803e3d6000fd5b600054610100900460ff166144145760405162461bcd60e51b81526004016105fb90615cec565b6001609a55565b600061157d838361473d565b600061157d8383614830565b606061444e826000600185516144499190615b83565b61487f565b5090565b6001600160a01b038416600090815260986020526040902061448790846000818152600183016020526040812054151561157d565b151560011415611a27576001811515141561459a576001600160a01b03841660009081526098602090815260408083208684526002019091529020600101546144d1908390615900565b6001600160a01b03851660009081526098602090815260408083208784526002019091528120600101919091556145084285615b83565b6001600160a01b03861660009081526098602090815260408083208884526002019091529020546145399190615918565b6001600160a01b03861660009081526098602090815260408083208884526002019091529020600101549091508111614594576001600160a01b03851660009081526098602090815260408083208784526002019091528120555b5061465d565b6001600160a01b038416600090815260986020908152604080832086845260029081019092529091200154821015614632576001600160a01b038416600090815260986020908152604080832086845260029081019092529091200154614602908390615b83565b6001600160a01b03851660009081526098602090815260408083208784526002908101909252909120015561465d565b6001600160a01b03841660009081526098602090815260408083208684526002908101909252822001555b6001600160a01b03841660009081526098602090815260408083208684526002019091529020541580156146b957506001600160a01b038416600090815260986020908152604080832086845260029081019092529091200154155b15611a27576001600160a01b03841660008181526098602081815260408084208885526002808201845291852085815560018101869055909101849055939092529052610b16908461441b565b600054610100900460ff1661472d5760405162461bcd60e51b81526004016105fb90615cec565b610c3e614738611a53565b6125ef565b60008181526001830160205260408120548015614826576000614761600183615b83565b855490915060009061477590600190615b83565b90508181146147da57600086600001828154811061479557614795615b6d565b90600052602060002001549050808760000184815481106147b8576147b8615b6d565b6000918252602080832090910192909255918252600188019052604090208390555b85548690806147eb576147eb615eab565b600190038181906000526020600020016000905590558560010160008681526020019081526020016000206000905560019350505050610838565b6000915050610838565b600081815260018301602052604081205461487757508154600181810184556000848152602080822090930184905584548482528286019093526040902091909155610838565b506000610838565b818180821415614890575050505050565b600085600261489f8787615ec1565b6148a99190615f00565b6148b39087615f2e565b815181106148c3576148c3615b6d565b602002602001015190505b8183136149d2575b808684815181106148e9576148e9615b6d565b60200260200101511015614909578261490181615f6f565b9350506148d6565b85828151811061491b5761491b615b6d565b602002602001015181101561493c578161493481615f88565b925050614909565b8183136149cd5785828151811061495557614955615b6d565b602002602001015186848151811061496f5761496f615b6d565b602002602001015187858151811061498957614989615b6d565b602002602001018885815181106149a2576149a2615b6d565b602090810291909101019190915252826149bb81615f6f565b93505081806149c990615f88565b9250505b6148ce565b818512156149e5576149e586868461487f565b83831215610ac757610ac786848661487f565b828054614a04906155e0565b90600052602060002090601f016020900481019282614a265760008555614a6c565b82601f10614a3f57805160ff1916838001178555614a6c565b82800160010185558215614a6c579182015b82811115614a6c578251825591602001919060010190614a51565b5061444e929150614acd565b828054828255906000526020600020908101928215614a6c579160200282015b82811115614a6c57825182546001600160a01b0319166001600160a01b03909116178255602090920191600190910190614a98565b5b8082111561444e5760008155600101614ace565b6001600160a01b038116811461188457600080fd5b60008083601f840112614b0957600080fd5b5081356001600160401b03811115614b2057600080fd5b602083019150836020828501011115614b3857600080fd5b9250929050565b60008060008060008060008060c0898b031215614b5b57600080fd5b8835614b6681614ae2565b97506020890135614b7681614ae2565b96506040890135614b8681614ae2565b95506060890135945060808901356001600160401b0380821115614ba957600080fd5b614bb58c838d01614af7565b909650945060a08b0135915080821115614bce57600080fd5b50614bdb8b828c01614af7565b999c989b5096995094979396929594505050565b600060208284031215614c0157600080fd5b5035919050565b600081518084526020808501945080840160005b83811015614c415781516001600160a01b031687529582019590820190600101614c1c565b509495945050505050565b60208152600061157d6020830184614c08565b60005b83811015614c7a578181015183820152602001614c62565b83811115611a275750506000910152565b60008151808452614ca3816020860160208601614c5f565b601f01601f19169290920160200192915050565b60208152600061157d6020830184614c8b565b634e487b7160e01b600052604160045260246000fd5b604080519081016001600160401b0381118282101715614d0257614d02614cca565b60405290565b60405161018081016001600160401b0381118282101715614d0257614d02614cca565b604051601f8201601f191681016001600160401b0381118282101715614d5357614d53614cca565b604052919050565b60006001600160401b03821115614d7457614d74614cca565b5060051b60200190565b600082601f830112614d8f57600080fd5b81356020614da4614d9f83614d5b565b614d2b565b82815260059290921b84018101918181019086841115614dc357600080fd5b8286015b84811015614de7578035614dda81614ae2565b8352918301918301614dc7565b509695505050505050565b60008060408385031215614e0557600080fd5b8235915060208301356001600160401b03811115614e2257600080fd5b614e2e85828601614d7e565b9150509250929050565b60008060408385031215614e4b57600080fd5b8235614e5681614ae2565b946020939093013593505050565b6001600160a01b0391909116815260200190565b6001600160401b038116811461188457600080fd5b600082601f830112614e9e57600080fd5b81356020614eae614d9f83614d5b565b82815260069290921b84018101918181019086841115614ecd57600080fd5b8286015b84811015614de75760408189031215614eea5760008081fd5b614ef2614ce0565b8135614efd81614ae2565b81528185013585820152835291830191604001614ed1565b60008060008060008060c08789031215614f2e57600080fd5b8635614f3981614ae2565b95506020870135614f4981614e78565b94506040870135614f5981614e78565b935060608701356001600160401b03811115614f7457600080fd5b614f8089828a01614e8d565b9350506080870135614f9181614e78565b915060a0870135614fa181614e78565b809150509295509295509295565b600080600060608486031215614fc457600080fd5b8335614fcf81614ae2565b92506020840135614fdf81614ae2565b929592945050506040919091013590565b6000806040838503121561500357600080fd5b82359150602083013561501581614ae2565b809150509250929050565b60006020828403121561503257600080fd5b813561157d81614ae2565b60006001600160401b0382111561505657615056614cca565b50601f01601f191660200190565b600082601f83011261507557600080fd5b8135615083614d9f8261503d565b81815284602083860101111561509857600080fd5b816020850160208301376000918101602001919091529392505050565b600080600080600060a086880312156150cd57600080fd5b85356150d881614ae2565b945060208601356150e881614ae2565b93506040860135925060608601356001600160401b038082111561510b57600080fd5b61511789838a01615064565b9350608088013591508082111561512d57600080fd5b5061513a88828901615064565b9150509295509295909350565b600080600080600080600080610100898b03121561516457600080fd5b883561516f81614ae2565b9750602089013561517f81614ae2565b9650604089013561518f81614ae2565b9550606089013561519f81614ae2565b94506080890135935060a08901356151b681614ae2565b925060c08901356151c681614ae2565b915060e08901356151d681614ae2565b809150509295985092959890939650565b6000806000606084860312156151fc57600080fd5b833561520781614ae2565b92506020840135915060408401356001600160401b0381111561522957600080fd5b61523586828701615064565b9150509250925092565b60008060006060848603121561525457600080fd5b833561525f81614ae2565b95602085013595506040909401359392505050565b600081518084526020808501945080840160005b83811015614c4157815187529582019590820190600101615288565b6000602080830181845280855180835260408601915060408160051b870101925083870160005b828110156152f957603f198886030184526152e7858351615274565b945092850192908501906001016152cb565b5092979650505050505050565b6000806040838503121561531957600080fd5b823561532481614ae2565b9150602083013561501581614ae2565b6000806000806080858703121561534a57600080fd5b843561535581614ae2565b9350602085810135935060408601356001600160401b038082111561537957600080fd5b61538589838a01614d7e565b9450606088013591508082111561539b57600080fd5b818801915088601f8301126153af57600080fd5b81356153bd614d9f82614d5b565b81815260059190911b8301840190848101908b8311156153dc57600080fd5b8585015b83811015615414578035858111156153f85760008081fd5b6154068e89838a0101614d7e565b8452509186019186016153e0565b50989b979a50959850505050505050565b6001600160a01b03929092168252602082015260400190565b600080600080600080600080610100898b03121561545b57600080fd5b883561546681614e78565b9750602089013561547681614e78565b965060408901356001600160401b0381111561549157600080fd5b61549d8b828c01614e8d565b96505060608901356154ae81614e78565b945060808901356154be81614e78565b935060a08901356154ce81614e78565b925060c08901356154de81614e78565b915060e08901356151d681614e78565b6000806000806080858703121561550457600080fd5b843561550f81614ae2565b93506020850135925060408501356001600160401b038082111561553257600080fd5b61553e88838901615064565b9350606087013591508082111561555457600080fd5b5061556187828801615064565b91505092959194509250565b6000806040838503121561558057600080fd5b8235915060208301356001600160401b0381111561559d57600080fd5b614e2e85828601615064565b6020808252601f908201527f5265656e7472616e637947756172643a207265656e7472616e742063616c6c00604082015260600190565b600181811c908216806155f457607f821691505b6020821081141561561557634e487b7160e01b600052602260045260246000fd5b50919050565b6020808252818101527f4f776e61626c653a2063616c6c6572206973206e6f7420746865206f776e6572604082015260600190565b60208082526024908201527f4552433737373a207472616e7366657220746f20746865207a65726f206164646040820152637265737360e01b606082015260800190565b9182526001600160a01b0316602082015260400190565b6020808252602c908201527f4552433737373a2063616c6c6572206973206e6f7420616e206f70657261746f60408201526b39103337b9103437b63232b960a11b606082015260800190565b60006020828403121561570957600080fd5b81516001600160401b0381111561571f57600080fd5b8201601f8101841361573057600080fd5b805161573e614d9f8261503d565b81815285602083850101111561575357600080fd5b615764826020830160208601614c5f565b95945050505050565b6000825161577f818460208701614c5f565b6a20636f6d6d6e756e69747960a81b920191825250600b01919050565b600082516157ae818460208701614c5f565b61206360f01b920191825250600201919050565b80516157cd81614ae2565b919050565b80516157cd81614e78565b805180151581146157cd57600080fd5b805160ff811681146157cd57600080fd5b6000610180828403121561581157600080fd5b615819614d08565b615822836157c2565b8152615830602084016157d2565b6020820152615841604084016157d2565b6040820152615852606084016157c2565b6060820152615863608084016157d2565b608082015261587460a084016157d2565b60a082015261588560c084016157d2565b60c082015261589660e084016157d2565b60e08201526101006158a98185016157d2565b908201526101206158bb8482016157dd565b908201526101406158cd8482016157ed565b908201526101606158df8482016157c2565b908201529392505050565b634e487b7160e01b600052601160045260246000fd5b60008219821115615913576159136158ea565b500190565b6000816000190483118215151615615932576159326158ea565b500290565b634e487b7160e01b600052601260045260246000fd5b60008261595c5761595c615937565b500490565b600181815b8085111561599c578160001904821115615982576159826158ea565b8085161561598f57918102915b93841c9390800290615966565b509250929050565b6000826159b357506001610838565b816159c057506000610838565b81600181146159d657600281146159e0576159fc565b6001915050610838565b60ff8411156159f1576159f16158ea565b50506001821b610838565b5060208310610133831016604e8410600b8410161715615a1f575081810a610838565b615a298383615961565b8060001904821115615a3d57615a3d6158ea565b029392505050565b600061157d6001600160401b038416836159a4565b606081526000615a6d6060830186614c08565b602083820381850152615a808287615274565b915083820360408501528185518084528284019150828160051b8501018388016000805b84811015615b0057878403601f19018652825180518086529088019088860190845b81811015615aeb5783516001600160a01b03168352928a0192918a0191600101615ac6565b50509688019694505091860191600101615aa4565b50919b9a5050505050505050505050565b60008060408385031215615b2457600080fd5b8251615b2f81614ae2565b6020939093015192949293505050565b602080825260149082015273494e53554646494349454e545f42414c414e434560601b604082015260600190565b634e487b7160e01b600052603260045260246000fd5b600082821015615b9557615b956158ea565b500390565b6000600019821415615bae57615bae6158ea565b5060010190565b600081518084526020808501945080840160005b83811015614c4157815180516001600160a01b031688528301518388015260409096019590820190600101615bc9565b60018060a01b038716815260006001600160401b038088166020840152808716604084015260c06060840152615c3260c0840187615bb5565b94811660808401529290921660a09091015250949350505050565b600060208284031215615c5f57600080fd5b815161157d81614ae2565b6001600160a01b0387811682528681166020830152851660408201526060810184905260c060808201819052600090615ca590830185614c8b565b82810360a08401526117b68185614c8b565b838152606060208201526000615cd06060830185614c8b565b8281036040840152615ce28185614c8b565b9695505050505050565b6020808252602b908201527f496e697469616c697a61626c653a20636f6e7472616374206973206e6f74206960408201526a6e697469616c697a696e6760a81b606082015260800190565b6001600160a01b0393841681526020810192909252909116604082015260600190565b60006020808385031215615d6d57600080fd5b82516001600160401b03811115615d8357600080fd5b8301601f81018513615d9457600080fd5b8051615da2614d9f82614d5b565b81815260059190911b82018301908381019087831115615dc157600080fd5b928401925b8284101561088d578351615dd981614ae2565b82529284019290840190615dc6565b634e487b7160e01b600052602160045260246000fd5b6001600160a01b038b811682528a1660208201526001600160401b038981166040830152888116606083015261014060808301819052600091615e438483018b615bb5565b98811660a085015296871660c0840152505092841660e08401529083166101008301529091166101209091015295945050505050565b600060208284031215615e8b57600080fd5b61157d826157dd565b600081615ea357615ea36158ea565b506000190190565b634e487b7160e01b600052603160045260246000fd5b60008083128015600160ff1b850184121615615edf57615edf6158ea565b6001600160ff1b0384018313811615615efa57615efa6158ea565b50500390565b600082615f0f57615f0f615937565b600160ff1b821460001984141615615f2957615f296158ea565b500590565b600080821280156001600160ff1b0384900385131615615f5057615f506158ea565b600160ff1b8390038412811615615f6957615f696158ea565b50500190565b60006001600160ff1b03821415615bae57615bae6158ea565b6000600160ff1b821415615ea357615ea36158ea56feddf252ad1be2c89b69c2b068fc378daa952ba7f163c4a11628f55a4df523b3efa164736f6c634300080b000a",
  "linkReferences": {},
  "deployedLinkReferences": {}
}