{
  "_format": "hh-sol-artifact-1",
  "contractName": "CommunityStakingPoolFactory",
  "sourceName": "contracts/CommunityStakingPoolFactory.sol",
  "abi": [
    {
      "anonymous": false,
      "inputs": [
        {
          "indexed": true,
          "internalType": "address",
          "name": "tokenA",
          "type": "address"
        },
        {
          "indexed": true,
          "internalType": "address",
          "name": "tokenB",
          "type": "address"
        },
        {
          "indexed": false,
          "internalType": "address",
          "name": "instance",
          "type": "address"
        },
        {
          "indexed": false,
          "internalType": "uint256",
          "name": "instancesCount",
          "type": "uint256"
        },
        {
          "indexed": true,
          "internalType": "address",
          "name": "erc20",
          "type": "address"
        }
      ],
      "name": "InstanceCreated",
      "type": "event"
    },
    {
      "inputs": [
        {
          "internalType": "address",
          "name": "",
          "type": "address"
        }
      ],
      "name": "_instanceInfos",
      "outputs": [
        {
          "internalType": "address",
          "name": "reserveToken",
          "type": "address"
        },
        {
          "internalType": "uint64",
          "name": "duration",
          "type": "uint64"
        },
        {
          "internalType": "uint64",
          "name": "bonusTokenFraction",
          "type": "uint64"
        },
        {
          "internalType": "address",
          "name": "tradedToken",
          "type": "address"
        },
        {
          "internalType": "uint64",
          "name": "reserveTokenClaimFraction",
          "type": "uint64"
        },
        {
          "internalType": "uint64",
          "name": "tradedTokenClaimFraction",
          "type": "uint64"
        },
        {
          "internalType": "uint64",
          "name": "lpClaimFraction",
          "type": "uint64"
        },
        {
          "internalType": "uint64",
          "name": "numerator",
          "type": "uint64"
        },
        {
          "internalType": "uint64",
          "name": "denominator",
          "type": "uint64"
        },
        {
          "internalType": "bool",
          "name": "exists",
          "type": "bool"
        },
        {
          "internalType": "uint8",
          "name": "instanceType",
          "type": "uint8"
        },
        {
          "internalType": "address",
          "name": "tokenErc20",
          "type": "address"
        }
      ],
      "stateMutability": "view",
      "type": "function"
    },
    {
      "inputs": [
        {
          "internalType": "address[]",
          "name": "instancesToRedeem",
          "type": "address[]"
        },
        {
          "internalType": "uint256[]",
          "name": "valuesToRedeem",
          "type": "uint256[]"
        },
        {
          "internalType": "address[][]",
          "name": "swapPaths",
          "type": "address[][]"
        }
      ],
      "name": "amountAfterSwapLP",
      "outputs": [
        {
          "internalType": "address",
          "name": "finalToken",
          "type": "address"
        },
        {
          "internalType": "uint256",
          "name": "finalAmount",
          "type": "uint256"
        }
      ],
      "stateMutability": "view",
      "type": "function"
    },
    {
      "inputs": [],
      "name": "creator",
      "outputs": [
        {
          "internalType": "address",
          "name": "",
          "type": "address"
        }
      ],
      "stateMutability": "view",
      "type": "function"
    },
    {
      "inputs": [
        {
          "internalType": "address",
          "name": "",
          "type": "address"
        },
        {
          "internalType": "address",
          "name": "",
          "type": "address"
        },
        {
          "internalType": "uint256",
          "name": "",
          "type": "uint256"
        }
      ],
      "name": "getInstance",
      "outputs": [
        {
          "internalType": "address",
          "name": "",
          "type": "address"
        }
      ],
      "stateMutability": "view",
      "type": "function"
    },
    {
      "inputs": [
        {
          "internalType": "address",
          "name": "",
          "type": "address"
        },
        {
          "internalType": "uint256",
          "name": "",
          "type": "uint256"
        }
      ],
      "name": "getInstanceErc20",
      "outputs": [
        {
          "internalType": "address",
          "name": "",
          "type": "address"
        }
      ],
      "stateMutability": "view",
      "type": "function"
    },
    {
      "inputs": [
        {
          "internalType": "address",
          "name": "reserveToken",
          "type": "address"
        },
        {
          "internalType": "address",
          "name": "tradedToken",
          "type": "address"
        },
        {
          "internalType": "uint64",
          "name": "duration",
          "type": "uint64"
        }
      ],
      "name": "getInstanceInfo",
      "outputs": [
        {
          "components": [
            {
              "internalType": "address",
              "name": "reserveToken",
              "type": "address"
            },
            {
              "internalType": "uint64",
              "name": "duration",
              "type": "uint64"
            },
            {
              "internalType": "uint64",
              "name": "bonusTokenFraction",
              "type": "uint64"
            },
            {
              "internalType": "address",
              "name": "tradedToken",
              "type": "address"
            },
            {
              "internalType": "uint64",
              "name": "reserveTokenClaimFraction",
              "type": "uint64"
            },
            {
              "internalType": "uint64",
              "name": "tradedTokenClaimFraction",
              "type": "uint64"
            },
            {
              "internalType": "uint64",
              "name": "lpClaimFraction",
              "type": "uint64"
            },
            {
              "internalType": "uint64",
              "name": "numerator",
              "type": "uint64"
            },
            {
              "internalType": "uint64",
              "name": "denominator",
              "type": "uint64"
            },
            {
              "internalType": "bool",
              "name": "exists",
              "type": "bool"
            },
            {
              "internalType": "uint8",
              "name": "instanceType",
              "type": "uint8"
            },
            {
              "internalType": "address",
              "name": "tokenErc20",
              "type": "address"
            }
          ],
          "internalType": "struct ICommunityStakingPoolFactory.InstanceInfo",
          "name": "",
          "type": "tuple"
        }
      ],
      "stateMutability": "view",
      "type": "function"
    },
    {
      "inputs": [
        {
          "internalType": "address",
          "name": "addr",
          "type": "address"
        }
      ],
      "name": "getInstanceInfoByPoolAddress",
      "outputs": [
        {
          "components": [
            {
              "internalType": "address",
              "name": "reserveToken",
              "type": "address"
            },
            {
              "internalType": "uint64",
              "name": "duration",
              "type": "uint64"
            },
            {
              "internalType": "uint64",
              "name": "bonusTokenFraction",
              "type": "uint64"
            },
            {
              "internalType": "address",
              "name": "tradedToken",
              "type": "address"
            },
            {
              "internalType": "uint64",
              "name": "reserveTokenClaimFraction",
              "type": "uint64"
            },
            {
              "internalType": "uint64",
              "name": "tradedTokenClaimFraction",
              "type": "uint64"
            },
            {
              "internalType": "uint64",
              "name": "lpClaimFraction",
              "type": "uint64"
            },
            {
              "internalType": "uint64",
              "name": "numerator",
              "type": "uint64"
            },
            {
              "internalType": "uint64",
              "name": "denominator",
              "type": "uint64"
            },
            {
              "internalType": "bool",
              "name": "exists",
              "type": "bool"
            },
            {
              "internalType": "uint8",
              "name": "instanceType",
              "type": "uint8"
            },
            {
              "internalType": "address",
              "name": "tokenErc20",
              "type": "address"
            }
          ],
          "internalType": "struct ICommunityStakingPoolFactory.InstanceInfo",
          "name": "",
          "type": "tuple"
        }
      ],
      "stateMutability": "view",
      "type": "function"
    },
    {
      "inputs": [],
      "name": "getInstancesInfo",
      "outputs": [
        {
          "components": [
            {
              "internalType": "address",
              "name": "reserveToken",
              "type": "address"
            },
            {
              "internalType": "uint64",
              "name": "duration",
              "type": "uint64"
            },
            {
              "internalType": "uint64",
              "name": "bonusTokenFraction",
              "type": "uint64"
            },
            {
              "internalType": "address",
              "name": "tradedToken",
              "type": "address"
            },
            {
              "internalType": "uint64",
              "name": "reserveTokenClaimFraction",
              "type": "uint64"
            },
            {
              "internalType": "uint64",
              "name": "tradedTokenClaimFraction",
              "type": "uint64"
            },
            {
              "internalType": "uint64",
              "name": "lpClaimFraction",
              "type": "uint64"
            },
            {
              "internalType": "uint64",
              "name": "numerator",
              "type": "uint64"
            },
            {
              "internalType": "uint64",
              "name": "denominator",
              "type": "uint64"
            },
            {
              "internalType": "bool",
              "name": "exists",
              "type": "bool"
            },
            {
              "internalType": "uint8",
              "name": "instanceType",
              "type": "uint8"
            },
            {
              "internalType": "address",
              "name": "tokenErc20",
              "type": "address"
            }
          ],
          "internalType": "struct ICommunityStakingPoolFactory.InstanceInfo[]",
          "name": "",
          "type": "tuple[]"
        }
      ],
      "stateMutability": "view",
      "type": "function"
    },
    {
      "inputs": [],
      "name": "implementation",
      "outputs": [
        {
          "internalType": "address",
          "name": "",
          "type": "address"
        }
      ],
      "stateMutability": "view",
      "type": "function"
    },
    {
      "inputs": [],
      "name": "implementationErc20",
      "outputs": [
        {
          "internalType": "address",
          "name": "",
          "type": "address"
        }
      ],
      "stateMutability": "view",
      "type": "function"
    },
    {
      "inputs": [
        {
          "internalType": "address",
          "name": "impl",
          "type": "address"
        },
        {
          "internalType": "address",
          "name": "implErc20",
          "type": "address"
        }
      ],
      "name": "initialize",
      "outputs": [],
      "stateMutability": "nonpayable",
      "type": "function"
    },
    {
      "inputs": [],
      "name": "instances",
      "outputs": [
        {
          "internalType": "address[]",
          "name": "instances_",
          "type": "address[]"
        }
      ],
      "stateMutability": "view",
      "type": "function"
    },
    {
      "inputs": [
        {
          "internalType": "uint256",
          "name": "index",
          "type": "uint256"
        }
      ],
      "name": "instancesByIndex",
      "outputs": [
        {
          "internalType": "address",
          "name": "instance_",
          "type": "address"
        }
      ],
      "stateMutability": "view",
      "type": "function"
    },
    {
      "inputs": [],
      "name": "instancesCount",
      "outputs": [
        {
          "internalType": "uint256",
          "name": "amount",
          "type": "uint256"
        }
      ],
      "stateMutability": "view",
      "type": "function"
    },
    {
      "inputs": [
        {
          "internalType": "address",
          "name": "reserveToken",
          "type": "address"
        },
        {
          "internalType": "address",
          "name": "tradedToken",
          "type": "address"
        },
        {
          "internalType": "uint64",
          "name": "duration",
          "type": "uint64"
        },
        {
          "internalType": "uint64",
          "name": "bonusTokenFraction",
          "type": "uint64"
        },
        {
          "components": [
            {
              "internalType": "address",
              "name": "account",
              "type": "address"
            },
            {
              "internalType": "uint256",
              "name": "amount",
              "type": "uint256"
            }
          ],
          "internalType": "struct IStructs.StructAddrUint256[]",
          "name": "donations",
          "type": "tuple[]"
        },
        {
          "internalType": "uint64",
          "name": "reserveTokenClaimFraction",
          "type": "uint64"
        },
        {
          "internalType": "uint64",
          "name": "tradedTokenClaimFraction",
          "type": "uint64"
        },
        {
          "internalType": "uint64",
          "name": "lpClaimFraction",
          "type": "uint64"
        },
        {
          "internalType": "uint64",
          "name": "numerator",
          "type": "uint64"
        },
        {
          "internalType": "uint64",
          "name": "denominator",
          "type": "uint64"
        }
      ],
      "name": "produce",
      "outputs": [
        {
          "internalType": "address",
          "name": "instance",
          "type": "address"
        }
      ],
      "stateMutability": "nonpayable",
      "type": "function"
    },
    {
      "inputs": [
        {
          "internalType": "address",
          "name": "tokenErc20",
          "type": "address"
        },
        {
          "internalType": "uint64",
          "name": "duration",
          "type": "uint64"
        },
        {
          "internalType": "uint64",
          "name": "bonusTokenFraction",
          "type": "uint64"
        },
        {
          "components": [
            {
              "internalType": "address",
              "name": "account",
              "type": "address"
            },
            {
              "internalType": "uint256",
              "name": "amount",
              "type": "uint256"
            }
          ],
          "internalType": "struct IStructs.StructAddrUint256[]",
          "name": "donations",
          "type": "tuple[]"
        },
        {
          "internalType": "uint64",
          "name": "numerator",
          "type": "uint64"
        },
        {
          "internalType": "uint64",
          "name": "denominator",
          "type": "uint64"
        }
      ],
      "name": "produceErc20",
      "outputs": [
        {
          "internalType": "address",
          "name": "instance",
          "type": "address"
        }
      ],
      "stateMutability": "nonpayable",
      "type": "function"
    }
  ],
  "bytecode": "0x608060405234801561001057600080fd5b50612d39806100206000396000f3fe608060405234801561001057600080fd5b50600436106100e05760003560e01c80634d2ace66116100875780634d2ace661461028e5780634e252976146102a3578063552f75a0146102c45780635c60da1b146102d55780635e4bb860146102e85780637ca25001146102fd57806393d85d9014610310578063c272605c1461032357600080fd5b806302d05d3f146100e557806308b0a09c1461010e5780630b9c6c7e146101485780632c99c5871461017c5780632d3231d11461018f57806341e7272f146101a2578063466c0303146101c2578063485cc95514610279575b600080fd5b6006546100f8906001600160a01b031681565b6040516101059190612198565b60405180910390f35b6100f861011c3660046121c4565b60026020908152600093845260408085208252928452828420905282529020546001600160a01b031681565b6100f8610156366004612205565b60036020908152600092835260408084209091529082529020546001600160a01b031681565b6100f861018a366004612231565b610336565b6005546100f8906001600160a01b031681565b6101b56101b0366004612261565b610366565b60405161010591906123aa565b6102616101d03660046123bf565b600c6020526000908152604090208054600182015460028301546003909301546001600160a01b03808416946001600160401b03600160a01b90950485169484811694600160401b9081900484169483831694828504841694600160801b8104851694600160c01b9091048116939083169260ff918104821692600160481b820490921691600160501b909104168c565b6040516101059c9b9a999897969594939291906123e3565b61028c61028736600461246f565b610464565b005b6102966105a2565b60405161010591906124a8565b6102b66102b1366004612679565b610604565b604051610105929190612754565b600754604051908152602001610105565b6004546100f8906001600160a01b031681565b6102f0610966565b604051610105919061276d565b6101b561030b3660046123bf565b610b01565b6100f861031e366004612838565b610be2565b6100f8610331366004612910565b610cfa565b60006007828154811061034b5761034b6129a0565b6000918252602090912001546001600160a01b031692915050565b61036e612127565b506001600160a01b03928316600090815260026020818152604080842095871684529481528483206001600160401b03948516845281528483205486168352600c81529184902084516101808101865281548088168252600160a01b9004851693810193909352600181015480851695840195909552600160401b9485900486166060840152908101548084166080840152848104841660a0840152600160801b8104841660c0840152600160c01b9004831660e08301526003015491821661010082015291810460ff9081161515610120840152600160481b820416610140830152600160501b900490911661016082015290565b600054610100900460ff1661047f5760005460ff1615610483565b303b155b6104eb5760405162461bcd60e51b815260206004820152602e60248201527f496e697469616c697a61626c653a20636f6e747261637420697320616c72656160448201526d191e481a5b9a5d1a585b1a5e995960921b60648201526084015b60405180910390fd5b600054610100900460ff1615801561050d576000805461ffff19166101011790555b610515610df0565b600180546001600160a01b03199081166001600160a01b03938416179091556000805462010000600160b01b031916620100009484169490940293909317909255600480548316868316179055600580548316918516919091179055600680543392169190911790556009805460ff19166002179055801561059d576000805461ff00191690555b505050565b606060078054806020026020016040519081016040528092919081815260200182805480156105fa57602002820191906000526020600020905b81546001600160a01b031681526001909101906020018083116105dc575b5050505050905090565b6000808080808080805b8a5181101561095857600c60008c838151811061062d5761062d6129a0565b6020908102919091018101516001600160a01b0316825281019190915260400160002060020154600160801b90046001600160401b03166106875789818151811061067a5761067a6129a0565b6020026020010151610744565b620186a06001600160401b0316600c60008d84815181106106aa576106aa6129a0565b60200260200101516001600160a01b03166001600160a01b0316815260200190815260200160002060020160109054906101000a90046001600160401b03166001600160401b03168b8381518110610704576107046129a0565b602002602001015161071691906129e2565b6107209190612a01565b8a8281518110610732576107326129a0565b60200260200101516107449190612a23565b91506107698b828151811061075b5761075b6129a0565b602002602001015183610f0f565b8e5193995091975095509350600c906000908d908490811061078d5761078d6129a0565b6020908102919091018101516001600160a01b0316825281019190915260400160002060020154600160401b90046001600160401b03161561084457620186a06001600160401b0316600c60008d84815181106107ec576107ec6129a0565b6020908102919091018101516001600160a01b031682528101919091526040016000206002015461082d90600160401b90046001600160401b0316886129e2565b6108379190612a01565b6108419087612a23565b95505b600c60008c838151811061085a5761085a6129a0565b6020908102919091018101516001600160a01b03168252810191909152604001600020600201546001600160401b03161561090357620186a06001600160401b0316600c60008d84815181106108b2576108b26129a0565b6020908102919091018101516001600160a01b03168252810191909152604001600020600201546108ec906001600160401b0316866129e2565b6108f69190612a01565b6109009085612a23565b93505b60008061091487898d888c8b6111e6565b92509050610931856109268885612a3a565b8d60008060006111e6565b9250905061093f828a612a3a565b909950975081905061095081612a52565b91505061060e565b505050505050935093915050565b6007546060906000906001600160401b03811115610986576109866124f5565b6040519080825280602002602001820160405280156109bf57816020015b6109ac612127565b8152602001906001900390816109a45790505b50905060005b600754811015610afb57600c6000600783815481106109e6576109e66129a0565b60009182526020808320909101546001600160a01b039081168452838201949094526040928301909120825161018081018452815480861682526001600160401b03600160a01b909104811693820193909352600182015480841694820194909452600160401b938490048516606082015260028201548084166080830152848104841660a0830152600160801b8104841660c0830152600160c01b9004831660e082015260039091015491821661010082015260ff92820483161515610120820152600160481b8204909216610140830152600160501b90049091166101608201528251839083908110610add57610add6129a0565b60200260200101819052508080610af390612a52565b9150506109c5565b50919050565b610b09612127565b506001600160a01b039081166000908152600c602090815260409182902082516101808101845281548086168252600160a01b90046001600160401b0390811693820193909352600182015480841694820194909452600160401b938490048516606082015260028201548084166080830152848104841660a0830152600160801b8104841660c0830152600160c01b9004831660e082015260039091015491821661010082015291810460ff9081161515610120840152600160481b820416610140830152600160501b900490911661016082015290565b6006546000906001600160a01b03163314610bfc57600080fd5b610c0a8b8b8b8b8a8a611481565b6000610c1d8c8c8c8c8b8b8b8b8b61168f565b90506001600160a01b038116610c455760405162461bcd60e51b81526004016104e290612a6d565b6001600160401b038a16610c6b5760405162461bcd60e51b81526004016104e290612ab4565b806001600160a01b0316639d1264d2600660009054906101000a90046001600160a01b03168e8e8c8c8c8c6040518863ffffffff1660e01b8152600401610cb89796959493929190612b32565b600060405180830381600087803b158015610cd257600080fd5b505af1158015610ce6573d6000803e3d6000fd5b50929e9d5050505050505050505050505050565b6006546000906001600160a01b03163314610d1457600080fd5b610d1f8787876119f8565b6000610d2e8888888787611aa2565b90506001600160a01b038116610d565760405162461bcd60e51b81526004016104e290612a6d565b6001600160401b038716610d7c5760405162461bcd60e51b81526004016104e290612ab4565b60065460405163614a73c760e11b81526001600160a01b038381169263c294e78e92610db292909116908c908a90600401612b92565b600060405180830381600087803b158015610dcc57600080fd5b505af1158015610de0573d6000803e3d6000fd5b50929a9950505050505050505050565b600080466001811480610e035750806003145b80610e0e5750806004145b80610e1a575080610539145b80610e26575080617a69145b15610e5d5750737a250d5630b4cf539739df2c5dacb4c659f2488d92735c69bee701ef814a2b6a3edd4b1652cb9cc5aa6f92509050565b8060891415610e98575073a5e0829caced8ffdd4de3c43696c57f7d7a678ff92735757371414417b8c6caad45baef941abc7d3ab3292509050565b8060381415610ed357507310ed43c718714eb63d5aa57b78b54704e256024e9273ca143ce32fe78f1f7019d7d551a6402fc5350c7392509050565b60405162461bcd60e51b81526020600482015260116024820152703ab739bab83837b93a32b21031b430b4b760791b60448201526064016104e2565b6001600160a01b038083166000908152600c60205260408120600181015490549192600160401b9091048116918391168215801590610f5657506001600160a01b03811615155b610f9f5760405162461bcd60e51b815260206004820152601a6024820152796164647265737365732063616e206e6f7420626520656d70747960301b60448201526064016104e2565b60015460405163e6a4390560e01b81526000916001600160a01b03169063e6a4390590610fd29087908690600401612bc7565b602060405180830381865afa158015610fef573d6000803e3d6000fd5b505050506040513d601f19601f820116820180604052508101906110139190612be1565b90506001600160a01b0381166110625760405162461bcd60e51b81526020600482015260146024820152737061697220646f6573206e6f742065786973747360601b60448201526064016104e2565b6040516370a0823160e01b81526000906001600160a01b038416906370a0823190611091908590600401612198565b602060405180830381865afa1580156110ae573d6000803e3d6000fd5b505050506040513d601f19601f820116820180604052508101906110d29190612bfe565b90506000856001600160a01b03166370a08231846040518263ffffffff1660e01b81526004016111029190612198565b602060405180830381865afa15801561111f573d6000803e3d6000fd5b505050506040513d601f19601f820116820180604052508101906111439190612bfe565b90506000836001600160a01b03166318160ddd6040518163ffffffff1660e01b8152600401602060405180830381865afa158015611185573d6000803e3d6000fd5b505050506040513d601f19601f820116820180604052508101906111a99190612bfe565b9050806111b6848b6129e2565b6111c09190612a01565b9550806111cd838b6129e2565b6111d79190612a01565b97505050505092959194509250565b6000806001600160a01b0385166114135760008060005b88518110156113da57888181518110611218576112186129a0565b602002602001015160018a8381518110611234576112346129a0565b6020026020010151516112479190612a23565b81518110611257576112576129a0565b60200260200101516001600160a01b03168b6001600160a01b03161415611286578a8a94509450505050611476565b8a925089915060005b8982815181106112a1576112a16129a0565b6020026020010151518110156113c7576000806112f3868d86815181106112ca576112ca6129a0565b602002602001015185815181106112e3576112e36129a0565b6020026020010151878d8d611dfa565b91509150811561130257611309565b50506113c7565b60018c858151811061131d5761131d6129a0565b6020026020010151516113309190612a23565b83141561137a578b8481518110611349576113496129a0565b60200260200101518381518110611362576113626129a0565b60200260200101518197509750505050505050611476565b8b848151811061138c5761138c6129a0565b602002602001015183815181106113a5576113a56129a0565b60200260200101519550809450505080806113bf90612a52565b91505061128f565b50806113d281612a52565b9150506111fd565b5060405162461bcd60e51b815260206004820152600d60248201526c1c185d1a1cc81a5b9d985b1a59609a1b60448201526064016104e2565b6000806114238a888b8989611dfa565b9150915081156114395786935091506114769050565b60405162461bcd60e51b8152602060048201526012602482015271199bdc98d9481cddd85c081a5b9d985b1a5960721b60448201526064016104e2565b965096945050505050565b846001600160a01b0316866001600160a01b031614156114ee5760405162461bcd60e51b815260206004820152602260248201527f436f6d6d756e697479436f696e3a204944454e544943414c5f41444452455353604482015261455360f01b60648201526084016104e2565b6001600160a01b0386161580159061150e57506001600160a01b03851615155b6115585760405162461bcd60e51b815260206004820152601b60248201527a436f6d6d756e697479436f696e3a205a45524f5f4144445245535360281b60448201526064016104e2565b620186a06001600160401b038316118015906115805750620186a06001600160401b03821611155b6115d85760405162461bcd60e51b815260206004820152602360248201527f436f6d6d756e697479436f696e3a2057524f4e475f434c41494d5f465241435460448201526224a7a760e91b60648201526084016104e2565b6001600160a01b038087166000908152600260209081526040808320898516845282528083206001600160401b038916845290915290205416801561162f5760405162461bcd60e51b81526004016104e290612c17565b600260095460ff166002811115611648576116486129b6565b148061166a5750600060095460ff166002811115611668576116686129b6565b145b6116865760405162461bcd60e51b81526004016104e290612c59565b50505050505050565b6004546000906116a7906001600160a01b031661208a565b6001600160a01b03808c1660009081526002602090815260408083208e8516845282528083206001600160401b038e168452825280832080549486166001600160a01b0319958616811790915560078054828652600a855292852083905560018381019091557fa66cc928b5edb82af9bd49922954155ab7b0942694bea4ce44661d9a8736c688909201805490951617909355600880549384018155825282047ff3f7a9fe364faab93b216da50a3214154f22a0a2b415b23a84c8169e8b636ee30180549394509092909160ff601f9091166101000a90810219909116908302179055506001600160a01b038082166000908152600b6020908152604080832080546001600160a01b031916331790558051610180810182528e851681526001600160401b03808e16938201939093528b831691810191909152928c166060840152888116608084015287811660a084015286811660c084015285811660e08401528416610100830152600161012083015261014082019060ff9081168252600060209283018190526001600160a01b038581168252600c845260409182902085518154958701519083166001600160e01b031996871617600160a01b6001600160401b0392831602178255928601516001820180546060890151928616971696909617600160401b91841682021790955560808601516002808301805460a08a015160c08b015160e08c01519589166001600160801b0319909316929092179088168a02176001600160801b0316600160801b918816919091026001600160c01b031617600160c01b9387169390930292909217909155610100870151600390920180546101208901516101408a0151610160909a0151949096166001600160481b03199091161794151590960293909317600160481b600160f01b031916600160481b9690941695909502600160501b600160f01b03191692909217600160501b949092169390930217905560095460ff16600281111561198c5761198c6129b6565b141561199d576009805460ff191690555b6007546040516000916001600160a01b038c811692908e16917f81701c1c70b426eb8901f685c148db992f144facb9e1c40bf83cdaf059348c8b916119e3918791612754565b60405180910390a49998505050505050505050565b6001600160a01b0380841660009081526003602090815260408083206001600160401b0387168452909152902054168015611a455760405162461bcd60e51b81526004016104e290612c17565b600260095460ff166002811115611a5e57611a5e6129b6565b1480611a805750600160095460ff166002811115611a7e57611a7e6129b6565b145b611a9c5760405162461bcd60e51b81526004016104e290612c59565b50505050565b600554600090611aba906001600160a01b031661208a565b6001600160a01b0380881660009081526003602090815260408083206001600160401b038b168452825280832080549486166001600160a01b0319958616811790915560078054828652600a855292852083905560018381019091557fa66cc928b5edb82af9bd49922954155ab7b0942694bea4ce44661d9a8736c688909201805490951617909355600880548085018255925281047ff3f7a9fe364faab93b216da50a3214154f22a0a2b415b23a84c8169e8b636ee3018054939450919260ff601f9092166101000a9182021916908302179055506001600160a01b0381166000908152600b6020908152604080832080546001600160a01b031916331790558051610180810182528381526001600160401b03808a169382019390935287831691810191909152606081018390526080810183905260a0810183905260c081019290925284811660e083015283166101008201526001610120820181905261014082019060ff90811682526001600160a01b038981166020938401528481166000908152600c845260409081902085518154958701519084166001600160e01b031996871617600160a01b6001600160401b0392831602178255918601516001820180546060890151928516971696909617600160401b91851682021790955560808601516002808301805460a08a015160c08b015160e08c01519588166001600160801b0319909316929092179087168a02176001600160801b0316600160801b918716919091026001600160c01b031617600160c01b9386169390930292909217909155610100870151600390920180546101208901516101408a0151610160909a0151949095166001600160481b03199091161793151590960292909217600160481b600160f01b031916600160481b9690941695909502600160501b600160f01b03191692909217600160501b949091169390930292909217905560095460ff166002811115611d9257611d926129b6565b1415611da6576009805460ff191660011790555b6007546040516001600160a01b0388169160009182917f81701c1c70b426eb8901f685c148db992f144facb9e1c40bf83cdaf059348c8b91611de9918791612754565b60405180910390a495945050505050565b60015460405163e6a4390560e01b8152600091829182916001600160a01b03169063e6a4390590611e31908b908b90600401612bc7565b602060405180830381865afa158015611e4e573d6000803e3d6000fd5b505050506040513d601f19601f82011682018060405250810190611e729190612be1565b90506001600160a01b038116611e875761207f565b600080826001600160a01b0316630902f1ac6040518163ffffffff1660e01b8152600401606060405180830381865afa158015611ec8573d6000803e3d6000fd5b505050506040513d601f19601f82011682018060405250810190611eec9190612cb4565b5091509150816001600160701b031660001480611f1057506001600160701b038116155b15611f1a5761207c565b826001600160a01b0316630dfe16816040518163ffffffff1660e01b8152600401602060405180830381865afa158015611f58573d6000803e3d6000fd5b505050506040513d601f19601f82011682018060405250810190611f7c9190612be1565b6001600160a01b03168a6001600160a01b031614611f9b578082611f9e565b81815b90925090506001600160701b03821687101580611fc45750806001600160701b03168610155b15611fce5761207c565b611fd88783612d04565b9150611fe48682612d04565b600054604051630153543560e21b8152600481018b90526001600160701b038086166024830152831660448201529192506201000090046001600160a01b03169063054d50d490606401602060405180830381865afa15801561204b573d6000803e3d6000fd5b505050506040513d601f19601f8201168201806040525081019061206f9190612bfe565b9350831561207c57600194505b50505b509550959350505050565b6000604051733d602d80600a3d3981f3363d3d373d3d3d363d7360601b81528260601b60148201526e5af43d82803e903d91602b57fd5bf360881b60288201526037816000f09150506001600160a01b0381166121225760405162461bcd60e51b8152602060048201526016602482015275115490cc4c4d8dce8818dc99585d194819985a5b195960521b60448201526064016104e2565b919050565b6040805161018081018252600080825260208201819052918101829052606081018290526080810182905260a0810182905260c0810182905260e0810182905261010081018290526101208101829052610140810182905261016081019190915290565b6001600160a01b03169052565b6001600160a01b0391909116815260200190565b6001600160a01b03811681146121c157600080fd5b50565b6000806000606084860312156121d957600080fd5b83356121e4816121ac565b925060208401356121f4816121ac565b929592945050506040919091013590565b6000806040838503121561221857600080fd5b8235612223816121ac565b946020939093013593505050565b60006020828403121561224357600080fd5b5035919050565b80356001600160401b038116811461212257600080fd5b60008060006060848603121561227657600080fd5b8335612281816121ac565b92506020840135612291816121ac565b915061229f6040850161224a565b90509250925092565b6122b382825161218b565b60208101516122cd60208401826001600160401b03169052565b5060408101516122e860408401826001600160401b03169052565b5060608101516122fb606084018261218b565b50608081015161231660808401826001600160401b03169052565b5060a081015161233160a08401826001600160401b03169052565b5060c081015161234c60c08401826001600160401b03169052565b5060e081015161236760e08401826001600160401b03169052565b50610100818101516001600160401b031690830152610120808201511515908301526101408082015160ff169083015261016080820151611a9c8285018261218b565b61018081016123b982846122a8565b92915050565b6000602082840312156123d157600080fd5b81356123dc816121ac565b9392505050565b6001600160a01b038d811682526001600160401b038d811660208401528c81166040840152908b166060830152898116608083015288811660a083015287811660c083015286811660e08301528516610100820152610180810184151561012083015260ff841661014083015261245e61016083018461218b565b9d9c50505050505050505050505050565b6000806040838503121561248257600080fd5b823561248d816121ac565b9150602083013561249d816121ac565b809150509250929050565b6020808252825182820181905260009190848201906040850190845b818110156124e95783516001600160a01b0316835292840192918401916001016124c4565b50909695505050505050565b634e487b7160e01b600052604160045260246000fd5b604080519081016001600160401b038111828210171561252d5761252d6124f5565b60405290565b604051601f8201601f191681016001600160401b038111828210171561255b5761255b6124f5565b604052919050565b60006001600160401b0382111561257c5761257c6124f5565b5060051b60200190565b600082601f83011261259757600080fd5b813560206125ac6125a783612563565b612533565b82815260059290921b840181019181810190868411156125cb57600080fd5b8286015b848110156125ef5780356125e2816121ac565b83529183019183016125cf565b509695505050505050565b600082601f83011261260b57600080fd5b8135602061261b6125a783612563565b82815260059290921b8401810191818101908684111561263a57600080fd5b8286015b848110156125ef5780356001600160401b0381111561265d5760008081fd5b61266b8986838b0101612586565b84525091830191830161263e565b60008060006060848603121561268e57600080fd5b83356001600160401b03808211156126a557600080fd5b6126b187838801612586565b94506020915081860135818111156126c857600080fd5b8601601f810188136126d957600080fd5b80356126e76125a782612563565b81815260059190911b8201840190848101908a83111561270657600080fd5b928501925b828410156127245783358252928501929085019061270b565b9650505050604086013591508082111561273d57600080fd5b5061274a868287016125fa565b9150509250925092565b6001600160a01b03929092168252602082015260400190565b6020808252825182820181905260009190848201906040850190845b818110156124e95761279c8385516122a8565b928401926101809290920191600101612789565b600082601f8301126127c157600080fd5b813560206127d16125a783612563565b82815260069290921b840181019181810190868411156127f057600080fd5b8286015b848110156125ef576040818903121561280d5760008081fd5b61281561250b565b8135612820816121ac565b815281850135858201528352918301916040016127f4565b6000806000806000806000806000806101408b8d03121561285857600080fd5b8a35612863816121ac565b995060208b0135612873816121ac565b985061288160408c0161224a565b975061288f60608c0161224a565b965060808b01356001600160401b038111156128aa57600080fd5b6128b68d828e016127b0565b9650506128c560a08c0161224a565b94506128d360c08c0161224a565b93506128e160e08c0161224a565b92506128f06101008c0161224a565b91506128ff6101208c0161224a565b90509295989b9194979a5092959850565b60008060008060008060c0878903121561292957600080fd5b8635612934816121ac565b95506129426020880161224a565b94506129506040880161224a565b935060608701356001600160401b0381111561296b57600080fd5b61297789828a016127b0565b9350506129866080880161224a565b915061299460a0880161224a565b90509295509295509295565b634e487b7160e01b600052603260045260246000fd5b634e487b7160e01b600052602160045260246000fd5b634e487b7160e01b600052601160045260246000fd5b60008160001904831182151516156129fc576129fc6129cc565b500290565b600082612a1e57634e487b7160e01b600052601260045260246000fd5b500490565b600082821015612a3557612a356129cc565b500390565b60008219821115612a4d57612a4d6129cc565b500190565b6000600019821415612a6657612a666129cc565b5060010190565b60208082526027908201527f436f6d6d756e697479436f696e3a20494e5354414e43455f4352454154494f4e60408201526617d1905253115160ca1b606082015260800190565b60208082526015908201527431b0b73a103132903d32b93790323ab930ba34b7b760591b604082015260600190565b600081518084526020808501945080840160005b83811015612b2757815180516001600160a01b031688528301518388015260409096019590820190600101612af7565b509495945050505050565b6001600160a01b03888116825287811660208301528616604082015260e060608201819052600090612b6690830187612ae3565b6001600160401b03958616608084015293851660a083015250921660c090920191909152949350505050565b6001600160a01b03848116825283166020820152606060408201819052600090612bbe90830184612ae3565b95945050505050565b6001600160a01b0392831681529116602082015260400190565b600060208284031215612bf357600080fd5b81516123dc816121ac565b600060208284031215612c1057600080fd5b5051919050565b60208082526022908201527f436f6d6d756e697479436f696e3a20504149525f414c52454144595f45584953604082015261545360f01b606082015260800190565b60208082526024908201527f436f6d6d756e697479436f696e3a20494e56414c49445f494e5354414e43455f6040820152635459504560e01b606082015260800190565b80516001600160701b038116811461212257600080fd5b600080600060608486031215612cc957600080fd5b612cd284612c9d565b9250612ce060208501612c9d565b9150604084015163ffffffff81168114612cf957600080fd5b809150509250925092565b60006001600160701b0383811690831681811015612d2457612d246129cc565b03939250505056fea164736f6c634300080b000a",
  "linkReferences": {},
  "deployedLinkReferences": {}
}